S0150000626D735F74656C656D657472792E7372656393
S315020000006006002229410002ED3F0002254100025E
S315020000102541000225410002254100022541000238
S31502000020000000000000000000000000192100028C
S315020000302541000200000000312100029921000240
S31502000040492D0002DD2E000201300002E5300002D9
S3150200005021390002A93A0002813B0002213900023D
S31502000060F5390002C9270002392700025928000281
S30902000070A5280002B5
S315020000740000000000000000000000000000C8426A
S315020000840000C8420000000000000000000000005A
S315020000940000000000000000FCB3000200000000A3
S315020000A401000000000000000018000064000022A5
S315020000B401000000480000220300000001000000C5
S315020000C4037300000273000000000000020C00002B
S315020000D40370600002000000160000000700000022
S315020000E401000000020000002C0000000F000000C6
S315020000F404000000104000008C00002200000000F2
S3150200010454B30022BCB3002224B40022000000002F
S3150200011400000000000000000000000000000000D3
S3150200012400000000000000000000000000000000C3
S3150200013400000000000000000000000000000000B3
S315020001440000000000000000430000000000000060
S315020001540000000000000000000000000000000093
S315020001640000000000000000430000000000000040
S315020001740000000000000000000000000000000073
S315020001840000000000000000430000000000000020
S315020001940000000000000000000000000000000053
S315020001A40000000000000000430000000000000000
S315020001B40000000000000000000000000000000033
S315020001C400000000000000004300000000000000E0
S315020001D40000000000000000000000000000000013
S315020001E400000000000000004300000000000000C0
S315020001F400000000000000000000000000000000F3
S31502000204000000000000000043000000000000009F
S3150200021400000000000000000000000000000000D2
S315020002240000000000000000858000020580000234
S315020002340000000028BD000227BC000213BC000215
S3150200024413BC000213BC000213BC000213BC00025E
S3150200025413BC000213BC000213BC000213BC00024E
S31502000264FFFFFFFFFFFFFFFFFFFFFFFFFFFF000090
S315020002740100415343494900000000000000000008
S315020002840000000000000000000000000000000062
S3150200029400004153434949000000000000000000E9
S315020002A40000000000000000000000000000000042
S309020002B4000000003E
S315020002B80348044B834202D0034B03B118477047E5
S315020002C8440200224402002200000000064B0749AD
S315020002D8C91A891048BF0131491003D0044B0BB122
S315020002E801481847704700BF440200224402002210
S315020002F80000000010B5064C237843B9FFF7D8FF73
S31502000308044B13B10448AFF300800123237010BDD8
S31502000318900600220000000084A2000308B5054BDF
S315020003281BB105490548AFF30080BDE80840FFF751
S31502000338CDBF00BF000000009406002284A200037D
S3150200034810B5D0ED007AF4EEC07AF1EE10FA4FDA73
S3150200035800EB810353ED017AB4EEE70AF1EE10FAE7
S315020003687ADA4FF0000E041D01F1FF3C04E0B4EE08
S31502000378E70AF1EE10FA07D4BCF1010C7346F4EC65
S31502000388017A0EF1010EF2D100EB830090ED007AAC
S31502000398F5EEC00A30EE470A77EEC77AF1EE10FAA2
S315020003A880EE277A01EB03002BD8F7EE005A9FED71
S315020003B82F5A02EB830302EB800293ED006AD2ED19
S315020003C8006A93ED010AD2ED017A30EE460A77EE1B
S315020003D8E67A20EE070A67EE877A30EE060A77EEA5
S315020003E8A67A20EE250A67EE857A30EE270A10BD30
S315020003F808469FED1E7A0023F5EEC00AF1EE10FAC2
S31502000408D3D9F3EE097AF4EEE70AF1EE10FA1ADA1C
S31502000418F2EE047AF4EEE70AF1EE10FA21D403EBCF
S31502000428410170EEE70A0346082408461049F7EE2A
S31502000438005A2144D1ED006A76EEE77A80EEA75A91
S3150200044875EEC55AB5E703EB4101DFED085A0346D7
S31502000458B7EE005A0846ACE78B1EB7EE007AC81804
S31502000468CAE70424DFED017AE0E700BF00000000D6
S31502000478148C00022DE9F0412DED0E8B8AB01E9DDB
S315020004880446F0EE404AB0EE60EAF0EE418A0E46C5
S315020004981746B0EE614A984635B10021296069606F
S315020004A8A960E96029616961D4ED081AF5EEC01AF6
S315020004B8F1EE10FA00F11783B3EE09DAF4EECD1A6B
S315020004C8F1EE10FA3DFE21DA94ED001AB5EEC01AE5
S315020004D8B6EE008AF1EE10FA24EE888A00F100835D
S315020004E8B7EE003AB4EEC31AF1EE10FA33FE013A49
S315020004F8F0EE4D0A0C21D74AD748B0EE430AFFF769
S315020005081FFF0C21B0EE409AF0EE4D0AB0EE430AF8
S31502000518D24AD148FFF714FFDFEDD17ADFEDE66A5A
S3150200052868EE277A67EEA67A71EE679A94ED077AED
S315020005389FEDCC6AF5EEC09A37EE067AF1EE10FA1E
S31502000548B0EE40CA84ED077A00F1C782F7EE007A68
S31502000558F4EE679AF1EE10FA77FEA99A94ED023A4A
S315020005689FEDC1AA9FEDC17ADFEDD37AD4ED012AB8
S3150200057823EE077A28EE0AAAB7EE006A3AEE47AAE7
S315020005882CEE27BA22EE8C7A68EE09AA3BEE06BA58
S315020005987AEE87AAD4ED046A2AEE27AA6AEEA7AAF1
S315020005A82BEE0BBADFEDB27AD4ED03CADFEDB15A00
S315020005B82BEE26BAD4ED05BA7CEEA7CADFEDAE7AE3
S315020005C86BEEA5BA3BEE27BADFEDB67AAB486521E4
S315020005D8F0EE4D0AB0EE690AA94A7BEEA7BAFFF712
S315020005E8AFFE94ED062A22EE087A7AEEA2AA70EEF9
S315020005F847DA3AEE03AA7DEEEADAF2EE007A7DEE01
S31502000608CADA00206DEEA7DACDE904003EEE6DEAFD
S31502000618CDE90600CDE9080086B17FB1F0EE440ABD
S315020006284246B0EE640A3946F0EE4E3A04A800F0A5
S31502000638A5FADDED067A3EEE674A03E0B0EE4E4ACB
S31502000648DFED9F7A8DED004A8DED01EA8DED024AC6
S31502000658CDED037A9DED003F55B1CDED067A0DF14C
S31502000668100CBCE80F000FC59CE8030085E80300E0
S315020006784FF00A0E37EEAD7A64EE046ADFED907A31
S315020006884EF001E094F84C107E4A04EB81000131E9
S31502000698A2FB0152D20802EB8202A1EB420184EDCF
S315020006A8153FC4ED19DA84ED1A7A04F12403C0ED74
S315020006B8096A84F84C10B3EC017A77EE877A0FF060
S315020006C807C0B2EE045A9FED776A87EE853ABAEE0C
S315020006D8007AB4EE463A68EE077AF1EE10FAD4EDED
S315020006E8076A27EEA77A48BFB0EE463A27EE267A79
S315020006F8DFED655A37EE037AB4EEE57AF1EE10FAD3
S3150200070884ED143A40F3A08026EEA76AC6EE073AAD
S3150200071823EEA37A63EEA77AF7EE004A64EE233A4B
S3150200072874EEE74AD4ED067A64EEA44A73EEA73A63
S31502000738DFED567A23EE077A64EEA64AF4EEE73A36
S3150200074874EE874AF1EE10FAC4ED074A00F1AA815F
S31502000758DFED4F7AF4EE673AF1EE10FA77FEA33A36
S31502000768DFED4C2AF7EE007A39EEA20AB4EEE70A72
S31502000778F1EE10FAC4ED063A79EEE22A40F3A181C7
S3150200078837EEE22AB0EE670A6521F0EE4D0A3C4AD8
S315020007983A48FFF7D5FDF0EE407A6521B0EE620AD7
S315020007A8F0EE4D0A364A3548F0EE672AFFF7C8FDDD
S315020007B89FED356A32EEC00A72EE066AF2EE005A0A
S315020007C8C0EE262AFAEE007A62EEA52A9FED327A62
S315020007D86BEE275A6BEEA76A62EEA27A2BEE072A0F
S315020007E867EEAC7A2BEE877A77EE827A77EE877A9D
S315020007F877EE837AF4EEC67AF1EE10FA2CEEA25A66
S3150200080860DDB7EE002A82EE276A26EE057A64EEE6
S31502000818077A66EE261A66EE255A77EEA97A64EE06
S31502000828256AF5EEC07A24EE214A76EEAA6A34EEF5
S315020008380A4AF1EE10FAC4ED016A84ED024A40F161
S315020008485581DFED1F7A55E09FED1D7AF0EE473AA6
S3150200085860E700BF008500029085000270840002EE
S31502000868F4F9CA3877CC2B326F120339CDCC4C3C0B
S31502000878BD370635425C7F3FACC52737808A000202
S31502000888C0850002CDCCCCCCFFE6DB2E6F12833AB4
S31502000898CDCC4C3E17B7D13800008042CCBC8C2B4D
S315020008A8DC243428BD37863500007A440000C84265
S315020008B85555553F610BB63BCDCCCC3D0000704239
S315020008C8000000005FED027A65EEA75A66EEA71AE7
S315020008D825EE277A24EE256A64EE216A36EE2A6A1E
S315020008E824EE074A76EE8A6A74EE297A84ED016A5C
S315020008F8C4ED026AB7EE006AB2EE005ABAEE004AD0
S31502000908C4ED007A62EE877A62EEA56A25EEA51A2A
S3150200091862EEA12A65EE845A27EE072A27EE054AD1
S3150200092876EE677A21EE855A61EEA11A22EEA27A4E
S3150200093822EE032A61EE032A24EE044A21EE833AC2
S3150200094867EEA77A76EE651A24EE0B1A66EEA66AA3
S3150200095867EEAC7A61EEA11A35EE066A61EE8B1A7B
S3150200096866EEAC6A65EEA55A25EE055A24EE2B4AC2
S3150200097877EE817A25EE0B5A76EEA16A27EE2C7A65
S3150200098865EEAB5A26EE066A77EE847A5FED3D1A75
S3150200099837EE057A26EE2B6A77EE827A76EEA56A26
S315020009A8F4EE617A37EE067A76EEA26AF1EE10FA7C
S315020009B837EE037AF4EE616A1FED475A48BFF0EE46
S315020009C8617AF1EE10FAB4EE617A1FED4A6A48BF0F
S315020009D8F0EE616AF1EE10FAF4EE454A48BFB0EE5F
S315020009E8617AF1EE10FAB4EE469A48BFF0EE454A3D
S315020009F8F1EE10FAB1EE4CCA48BFB0EE469A84ED53
S31502000A08057A8CEE097AB5EEC07AF1EE10FAC4EDE3
S31502000A18037AC4ED046AC4ED074A4FD45FED5E7AE1
S31502000A28B4EE677AF1EE10FA37FE877A68EE087A3C
S31502000A386AEEAAAAD4ED086A2AEE0AAA1FED654A40
S31502000A4867EEA37A6AEE87AA5FED674A76EEE88AC8
S31502000A582AEE04AA77EEAA7A68EEA48A77EE8A7A4A
S31502000A681FED6C5A77EEE87A5FED6D5A67EE857A76
S31502000A7867EEA57ABAEE046A77EEA67AF4EEC67A35
S31502000A88F1EE10FA11D41FED737AF4EE477AF1EE0D
S31502000A9810FA77FE277AC4ED087A0AB0BDEC0E8BF7
S31502000AA8BDE8F081F0EE673A5AE6F0EE467AC4ED12
S31502000AB8087A0AB0BDEC0E8BBDE8F0811FED807A8C
S31502000AC8B4E7F5EEC02AF1EE10FA52BF30EE622A0A
S31502000AD8B0EE402A5FED862A56E65FED879A3DE537
S31502000AE81FED893A04E51FED8ADAEDE4F4EE427A5F
S31502000AF8F1EE10FA72FE277AFCE600BF70B568229C
S31502000B0804460021043010EE106A10EE905A05F0E1
S31502000B1849FE4FF00A0E4EF001E0094B094A0A480F
S31502000B280A4920622660E36022616261A561E16189
S31502000B38236504F1240040F8043B0FF005C070BD9C
S31502000B480AD7233C6F12833A0000C84117B7D13837
S31502000B58002300B583B0DFED051A1A46194600933D
S31502000B68FFF788FC03B05DF804FB00BF0000000035
S31502000B7818B18822002105F015BE70472DE9F04FFD
S31502000B882DED068B2DED04CB0023ADF5097DCDEDBC
S31502000B98091A8DED081A8DED0A2ACDED0B2A9DED5F
S31502000BA808DFCDE90220CDE90C33CDE90E33CDE9D4
S31502000BB81033002900F04B83029BF0EE41AAB0EEF7
S31502000BC861AAF0EE429AF0EE408A10EE904AB0EE32
S31502000BD8639A13EE10BA0E46002B00F0F781CB6F1C
S31502000BE8D1F88070009301330193002F00F0FA8147
S31502000BF891ED217ADFED6A6A70EE477A67EEA67A98
S31502000C0877EE877A009A674B02F11E01A3FB01026F
S31502000C18881A02EB50021209C2EB42128A1A06EB32
S31502000C2882021268012F0DF1480CC6ED217A8CED6D
S31502000C38000ACCF8042000F0E081009A042F02F1A1
S31502000C481D01A3FB0102A1EB020002EB50024FEACF
S31502000C581212C2EB4212A1EB020206EB82021268E0
S31502000C68CCF8082040F2CB81009A092F02F11A012A
S31502000C78A3FB0102A1EB020002EB50024FEA121299
S31502000C88C2EB4212A1EB020206EB82021268CCF810
S31502000C980C2040F2B681009A132F02F11501A3FB2C
S31502000CA80102A1EB020002EB50024FEA1212C2EB5A
S31502000CB84212A1EB020206EB82021268CCF810205D
S31502000CC840F2A181009A1D2F02F10B01A3FB01023A
S31502000CD8A1EB020002EB50024FEA1212C2EB4212D9
S31502000CE8A1EB020206EB82021268CCF8142040F24B
S31502000CF8AB820199A3FB0123CA1A03EB52031B0910
S31502000D08C3EB4313CB1A06EB83031B68F3EE0E6A97
S31502000D1888EEA68A87EEA67ACDED057A67EE087A78
S31502000D2804930794CDED067A9DED043F22AAF8EEC8
S31502000D38005AB0EE006A8DED1CDF654614460F2395
S31502000D488DED183F18481949CCF838B009E0F4EE89
S31502000D58467AF1EE10FA76FE277A013BE4EC017A3E
S31502000D6814D0F0EC017AB5EC017AF1EC016A37EEAF
S31502000D78677AC7EE267AF4EEE57AF1EE10FAE6D548
S31502000D88F8EE007A013BE4EC017AEAD10DF1C409E6
S31502000D98F8EE006AB0EE007A48460F2312E000BF6A
S31502000DA80017DA3A8510420820AB0002E0AA0002D0
S31502000DB8F4EE477AF1EE10FA77FE277A013BE0EC79
S31502000DC8017A0CD0F2EC017AF4EEE67AF1EE10FA38
S31502000DD8EED5F8EE007A013BE0EC017AF2D1DFF8C3
S31502000DE824B4DFF824A40DF5B0780BF1C00509F197
S31502000DF83C04A4EB090EAEF1040E4FEA9E0E0EF168
S31502000E08010EBBEC010A4EF001E0CC465346F3EC68
S31502000E18017ABCEC017A67EE877A30EE270A0FF080
S31502000E280BC007F041F9AB45A8EC010A0AF13C0AE6
S31502000E38DFD1DFF8D8A3DFF8D8B30DF580790AF148
S31502000E4860050BF1C004A4EB0B04A4F1100E4FEAE3
S31502000E581E1E0EF1010EBAEC010A4EF001E05C46C6
S31502000E6858A9B1EC045FB4EC047F06FF546D36EE64
S31502000E78103B17EE10CB05EE903A30EE060A37EE27
S31502000E88100B30EE250A07EE90CA30EE270A07EE57
S31502000E98900A30EE270A0FF01DC007F005F95545EE
S31502000EA8A9EC010A0BF1C00B04F1C004CBD14FF037
S31502000EB8060E9FEDC40A4EF001E0C34940AAB1EC02
S31502000EC8047FB2EC045F06FF546D36EE104B17EE44
S31502000ED8103B37EE100B70EE067A07EE104A77EEE5
S31502000EE8877A07EE103A77EE277A07EE100A37EE78
S31502000EF8870A0FF01DC007F0D7F8DFEDB46A9FED39
S31502000F08B47A60EE267A9FEDB36A27EE877AB4EE54
S31502000F18C67AF1EE10FACDED0C7A00F15081B4EEF4
S31502000F28667AF1EE10FA36FE877AF5EEC08AF1EEA7
S31502000F3810FAF7EE007A48BFB1EE488AB4EEE78AAD
S31502000F484CBFF1EE685AF0EE685AF1EE10FA8DEDE2
S31502000F580D7A00F33181DFEDA07ADFEDAE6A68EE35
S31502000F68277A77EEA67AB3EE096A36EE4A5AC5EEBC
S31502000F78066AF5EEC06AF1EE10FA00F11A81B7EECA
S31502000F88006AF4EEC66AF1EE10FA00F363819FED89
S31502000F98A16A66EE866AB5EEC07A77EEA67AF1EEB1
S31502000FA810FADFED8E6ACDED0F7A67EEA66A2FD4B8
S31502000FB8B4EEE67AF1EE10FA80F2EE80B4EEE77A53
S31502000FC8F1EE10FA38DCB0EE476A2FE1029D88226C
S31502000FD82946304605F0E6FB4FF480731093012349
S31502000FE800950193C6ED218AF0EE687A0027CDEDC9
S31502000FF8128ACDED138A0DF1480CCCED028ACCED9E
S31502001008038ACCED048ACCED058A18EE903A7DE681
S31502001018B1EE476AB4EEE66AF1EE10FAF1EE677AD5
S31502001028C0F2FE80B4EEE77AF1EE10FA109B43F0B6
S315020010388003109340F1BA80CDED0E7A029B3B2BCA
S3150200104800F2A880109B43F0010310930023DFED02
S31502001058627AF4EEE7AAF1EE10FA06D4DFED607AC8
S31502001068F4EEE7AAF1EE10FA04DD0023109A42F034
S3150200107802021092FAEE047AB4EEE7AAF1EE10FA38
S3150200108806D4DFED587AB4EEE7AAF1EE10FA04DDDB
S315020010980023109A42F004021092DFED537AF4EE1E
S315020010A8E75AF1EE10FA04DD0023109A42F008021C
S315020010B81092B5EEC09AF1EE10FA9FED4C7A4CBF3B
S315020010C8F1EE497AF0EE497AF4EEC77AF1EE10FAC1
S315020010D836DDDFED477AF4EEE79AF1EE10FA109B69
S315020010E843F01003109306D4DFED427AF4EEE79A42
S315020010F8F1EE10FA02DD43F02003109300230E935B
S31502001108019B009A1F2B28BF002306EB8208C8ED15
S31502001118008AF3677B1C02D00137C6F88070039CED
S315020011280CAD0FCD0FC495E8030084E803000398BD
S315020011380DF5097DBDEC04CBBDEC068BBDE8F08F41
S315020011489FED2B7AF4EEC79AF1EE10FA20D49FEDB2
S31502001158297AF4EEC79AF1EE10FA19DC8DF84430C2
S31502001168002BCBD09DED0E7AB5EE407AF1EE10FA51
S315020011784FF00003C4D0DFED206AF4EEE67AF1EE12
S3150200118810FA6AD50E93109B43F400631093B7E7DF
S31502001198109BB0E701235AE7B4EEE77AF1EE10FAAC
S315020011A8109B43F0800310933FF746AF8DED0E7AFE
S315020011B844E7DFED126AEEE6DFED117AD3E6B0EE2A
S315020011C8467AB2E6CDEC483D208C00020AD7233D8A
S315020011D83333B73F0AD723BD0AD7A33C52B87E3F5B
S315020011E848E17A3F0000704200000C429A99993E03
S315020011F80AD7A33B0AD7A33DA69B443A00000000A0
S315020012088FC2F53CE09E0002A09F0002808C00027D
S31502001218E08C00020AD7233C6666263F6F12033A21
S31502001228B4EEE77AF1EE10FA3FF506AF5FED057A0E
S31502001238B4EEE76AF1EE10FAB8D500230E93109BC6
S3150200124843F040031093F9E610EE103A5EE50123E7
S31502001258109364E75FED116A9DE667EE096AF5EE9B
S31502001268C06AF1EE10FA2BD9B5EEC07A5FED166AAE
S31502001278F1EE10FA67EEA67A48BFB1EE477AB4EEF7
S31502001288E77AF1EE10FA0CDDB5EEC09AF1EE10FA35
S315020012981CDBCDED0E7AB0EE677A109B43F48063C1
S315020012A810935FED227AB4EEE77AF1EE10FA7FF543
S315020012B827AF00230E93109B43F0400310931FE7BA
S315020012C80E93109B43F40073109319E7F1EE676AC5
S315020012D8109BB0EE677A43F48063CDED0E6A1093E5
S315020012E8DFE700BF70B50C4694B0064648220021D7
S315020012F802A805F057FA4FF0000C4FF0080E2068C6
S315020013086168104D04AB03C301AA61460E480196F3
S315020013188DF80AE085F800C002F0DAF8064668B9E0
S31502001328642404E0012004F011F9013C02D02B7870
S31502001338002BF7D02B78002B08BF1426304614B0A2
S3150200134870BD00BF1007002274AA0022002300B550
S315020013580A4A83B04FF440706946CDE90023FFF785
S31502001368C1FF30B9064A13680133136003B05DF84A
S3150200137804FB044A136801331360F7E7A55A5200BF
S31502001388180800221408002270B50024828886B044
S31502001398B2F5806F019421D007D9B2F5006F02D158
S315020013A80122284B1A7006B070BD082A02D0B2F57F
S315020013B8807FF8D1244802F013F82449224802F023
S315020013C80BF9019B002BEED04FF08052204B5A604E
S315020013D8BFF34F8FBFF36F8F06B070BD827E1D4E6F
S315020013E8082A28BF0822336845690133C5F30A0566
S315020013F800F120010DF10D0033608DF80C200295E5
S3150200140805F0F2F9144AA5F50073012B156005D902
S31502001418124A13680133136006B070BD104D1148A5
S315020014282A6802A923460068541C01AA2C6003F004
S3150200143833FA01280CBF0C490C49019B0A68013290
S315020014480A60BFE71007002274AA002220B400022D
S3150200145800ED00E00C070022F8060022FC06002236
S3150200146808070022140700220407002200070022A8
S315020014782DE9F04F2DED0E8B002491B01021082096
S31502001488454B464A009403F071F8DFF838B1CBF8B9
S315020014980000002800F04C824149424802F09CF8BC
S315020014A8C82004F053F8FFF751FF322004F04EF833
S315020014B8FFF74CFF322004F049F8FFF747FF04F024
S315020014C86FF8DFED39CA9FED39BA9FED39CA9FED3C
S315020014D839AADFED39AADFED39BADFF8ECA0DFF871
S315020014E8EC90DFF8EC80364F0B9040F20125002293
S315020014F8DBF800000CA903F043FA01286ED100219B
S31502001508DAF8000003F0F8FA01280446EFD10C9B3A
S31502001518B3F5007F0ED0AB4204D19DF83430072BC9
S3150200152800F2A5810023DAF800001A46194603F0EC
S3150200153899F8DCE79DF83430062BF3D9BDF8353037
S31502001548BDF83710BDF839205BBAC9BAD2BA9BB210
S3150200155806EE901A07EE102A07EE903AF8EEE66AB9
S31502001568F8EE677AB8EEC77A67EE8C7A66EE8B6A19
S3150200157827EE0B7A9DF83B30C9ED007AC9ED016A70
S3150200158889ED027A89F80C3004F00AF889F81440D1
S31502001598C9F81000C6E700BF9807002218070022FC
S315020015A820B4000274AA002217B7D1380AD7233CFE
S315020015B86F12833A00007A4400FEFF4600007F431A
S315020015C8000000221407002210080022E007002269
S315020015D8AC06002200FEFFC600FF7F470A21D8F8A4
S315020015E8000003F089FA012840F06F81002397ED85
S315020015F800EA97F8201097F82340049197F82110EB
S31502001608621C029197F8221087F8232003911A4642
S315020016181946D8F8000097ED019AD7ED028AD7ED58
S3150200162803EAD7ED04DAD7ED059A97ED06DA97EDD0
S31502001638078A03F017F86EEE0A7AF5EEC07AF1EE2B
S3150200164810FA00F147811FED1C7AF4EEC77AF1EE23
S3150200165810FA00F35D81FCEEE77A17EE905AC5F3AD
S3150200166807230893EDB269EE0A7AF4EEEA7AF1EE06
S3150200167810FA00F339811FED297AF4EEC77AF1EEF2
S3150200168810FA00F14B81FDEEE77A17EE903AC3F3B2
S31502001698072CDBB2059368EE8A7AF4EEEA7AF1EE63
S315020016A810FA00F32D811FED357AF4EEC77AF1EEC2
S315020016B810FA00F13881FDEEE77A17EE902AC2F3A6
S315020016C807230693D3B20793F2EE047A6EEEA77A4D
S315020016D8F4EEEB7AF1EE10FA4FF00002D8BFFCEE08
S315020016E8E77A1646D4BFCDED097A4FF0FF0E089B6E
S315020016F8D8BF9DF824E063F3070265F30F22059B22
S315020017086CF3174263F31F62069B0CA963F3070681
S31502001718079B4FF4807063F30F266EF3174664F344
S315020017281F6600240C920D96FFF7DCFD049BCDE99B
S315020017380C448DF83030039B40F201108DF831309D
S31502001748029B0CA98DF83230FFF7CCFDF2EE047A33
S315020017586DEEA77AF5EEC07AF1EE10FA0D9471D411
S315020017681FED637AF4EEC77AF1EE10FA69DCFCEE45
S31502001778E77AF5EEC09A17EE903AF1EE10FAC3F34D
S315020017880726DCB264D45FED6C7AF4EEE79AF1EEE2
S3150200179810FA00F3C080FCEEE97A17EE903AC3F32A
S315020017A80725DBB2002266F3070264F30F2265F30C
S315020017B8174263F31F624FF481700CA90C92FFF76C
S315020017C891FD6DEE0A7AF5EEC07A0024F1EE10FA72
S315020017D80D9441D41FED807AF4EEC77AF1EE10FA31
S315020017E839DCFCEEE77A17EE903A68EE0A7AF5EEFD
S315020017F8C07AF1EE10FAC3F30726DCB234D41FED31
S315020018088A7AF4EEC77AF1EE10FA7EDCFCEEE77A13
S3150200181817EE903AC3F30725DBB2002266F30702F6
S3150200182864F30F2265F317420CA963F31F6240F2B1
S3150200183803100C92FFF756FD64210BA803F030FE45
S3150200184853E6FF24F5EEC09AF1EE10FA26469AD52B
S3150200185800231D46A6E7FF2468EE0A7AF5EEC07A4B
S31502001868F1EE10FA2646CAD500231D46D5E7BDF87D
S315020018783530BDF837205BBAD2BA9BB207EE102ACA
S3150200188807EE903AB8EEC77AF8EE677A27EE0B7A41
S3150200189867EEAC7A9DF83B309DF83A009DF83C100D
S315020018A81B029DF8392043EA00430B43C9ED067A29
S315020018B889ED077A89F82020C9F8243003F070FEEA
S315020018C889F82C40C9F828002CE664210BA803F0F5
S315020018D8E7FD0AE669EE0A7AF4EEEA7A0025F1EEFF
S315020018E810FA08957FF7C7AE68EE8A7AF4EEEA7AB6
S315020018F8FF23F1EE10FA4FF07F0C05937FF7D3AE74
S315020019087F23FF21CDE90631DEE6FF231D4684E764
S31502001918FF250895A7E6FF231D4643E701234FF057
S31502001928800C0593B7E680230122CDE90632CBE681
S31502001938FB21024B024A034802F006FB5CAB00029B
S31502001948ECB300026CAB000238B5044604F059FF4A
S3150200195800B938BD0023124D0246214611482B70A4
S3150200196800F02AFDB8B92B784BB9192401E0013CDD
S3150200197805D0012003F0EAFD2B78002BF7D02B784F
S3150200198823B1094A13680133136038BD074A13683D
S315020019980133136038BD064A13680133136038BD34
S315020019A868AA002290AA0022180900221009002219
S315020019B814090022000000002DE9F04F2DED0E8BD0
S315020019C84FF4FA70ADF5297D03F0C0FD4FF0E02122
S315020019D80020D1F8FC2DAC4B42F08072C1F8FC2DE8
S315020019E858601A683C2442F00102DFF8E4B21A6031
S315020019F80BE00023A54A194610681A4602F032FE81
S31502001A08322003F0A3FD013C15D0A04B052118682E
S31502001A1803F072F80128F3D19BF82C30002BE8D09A
S31502001A28DBF82430142BE4D80023984A19461068A8
S31502001A381A4602F017FE9648FFF79AF8DFED950A5E
S31502001A48B7EE000A9448FFF759F89448FFF77CFF67
S31502001A58DFED93EA03F0A4FD00239FED929A9FED32
S31502001A6892BADFED92AA9FED84CB9FED85DBF0EE6D
S31502001A786EBA1EEE908A1E469A46CDE92233CDE903
S31502001A882433CDE92633844C219019931B9305E020
S31502001A98642121A80AF1640A03F002FD7B4B0521A1
S31502001AA8186803F029F80128054600F013814FF05B
S31502001AB80009DFED7B9A0AEE108A0EEE108A08EE0E
S31502001AC8108A08EE908A4D46794B7A4A01361E608C
S31502001AD81368052101331360774B186803F00CF875
S31502001AE80128D5D1199A754F042EA7FB022794BF50
S31502001AF80023012300223F0A1A929B01704A82F8A8
S31502001B08223000236C4A194610681A4602F0AAFDCA
S31502001B18002DBDD01A9B002BBAD0CDE91097DFED68
S31502001B28697A94ED070A94ED181AD4ED141A94ED0D
S31502001B381A2AD4ED192A94ED083AD4ED053A94ED09
S31502001B48044AD4ED034A94ED175AD4ED165A94ED85
S31502001B58066A94ED027ADFED5C6A6EEEAA0A60EE18
S31502001B68266A2AEE09AA69EEA79A21EE091A61EEF1
S31502001B788B1A22EE2A2A62EEAA2A23EE273A63EE65
S31502001B888B3A24EE0B4A64EE8B4A25EE095A65EE29
S31502001B98895A26EE096A27EE097AFDEEE00ABDEEB3
S31502001BA8C11AFDEEE11ABDEEC22AFDEEE22ABDEE2B
S31502001BB8C33AFDEEE33ABDEEC44AFDEEE44ABDEE93
S31502001BC8C55AFDEEE55ABDEEC66A6EEE277ABDEE39
S31502001BD8CAAAFDEEE99ABDEEC77AFDEEE66A269B2B
S31502001BE8CDED140A8DED161ACDED151A8DED132AC3
S31502001BF8CDED122A8DED0D3ACDED0B3A8DED0A4A51
S31502001C08CDED094A8DED085ACDED075A8DED066AD6
S31502001C18CDED0C6A1793FDEEE77A8DED0EAACDEDA2
S31502001C280F9A8DED057AD4ED016A94ED007A28EEC5
S31502001C382A8ACDED027A68EEAA8A67EE097A66EEF4
S31502001C48896AFDEEE77AFDEEE66ABDEEC88AFDEE22
S31502001C58E88A8DED018ACDED008A53464FF400716C
S31502001C68CDED046ACDED037A184A28A804F066FD7C
S31502001C7828A8FFF769FE0BE70000C842000000002B
S31502001C88000070410000F041001000E01008002238
S31502001C98880800227F6ABC3C1C08002284AB00022A
S31502001CA80000000000247449286B6E4E00007A4436
S31502001CB83C09002238090022AC0600228988888855
S31502001CC8000000220000C842A5D4685370AC000286
S31502001CD8E00700220027534B3A4618689BF814304F
S31502001CE839461A933B46DBED008A9BED018A9BED4A
S31502001CF802EA9BED06AADBED079ADBF824908BF83D
S31502001D0814708BF82C7002F0ADFC1A9B002B3FF472
S31502001D18DBAE454B1F60B9F1000F7BD01B9B002B36
S31502001D2875D1DFED42EA424B0026C3ED00EA414D8A
S31502001D38B0EE4E1AF0EE680AB0EE480A3E486F68F0
S31502001D48CDE92266CDE92466CDE92666FEF700FFCF
S31502001D586A681998D21B904238BF10460746D4EDD6
S31502001D68067A364B1997A3FB0737354A199B3F0A5A
S31502001D781360344B25681F60334BD4F854C01D607A
S31502001D88324BD4F820E0C3ED007A314B314AC3F81E
S31502001D9800C0314B3148C3F800E01368052101330E
S31502001DA80068CDED1B7A136002F0A6FE012804D066
S31502001DB80123F0EE48BA1B93AFE6D4ED007ADFEDC5
S31502001DC8286A28EE887A67EEA67AB5EEC08A254B87
S31502001DD8CDED1C8A8DED1D8A83ED00DF8DED1E7A11
S31502001DE8CDED1F7A9DED1C7FF1EE10FA1E4B83EDA9
S31502001DF8007F13DD0220012500231B4AF0EE48BAB4
S31502001E081E4682F8200082F821501B9576E678EE67
S31502001E186BEA88E71548FEF7ABFE82E7EBD50320A7
S31502001E28E9E700BF100800223C0900220000000072
S31502001E381C090022001000E01C08002289888888F4
S31502001E4830090022340900222C090022280900221E
S31502001E58240900224009002220090022AC06002299
S31502001E680000C84210000022000000228808002252
S31502001E78022800D070470249024800F01DBE00BF82
S31502001E8870B400026CAA002200BEFEE70379022B98
S31502001E9802D10122014B1A70704700BF68AA0022BC
S31502001EA870B501202B4984B002F0A8FC2A4B1860B1
S31502001EB8C0B10120294902F0A1FC294B186058B18A
S31502001EC82849294800F0F2FA044688B15221274BDC
S31502001ED8274A284802F038F84E21274B244A254833
S31502001EE802F032F84A21254B214A224802F02CF800
S31502001EF80425234823492346CDE901104FF40062FD
S31502001F0821492248009503F085F8214B1860A0B1B3
S31502001F1803252048204E2346CDE901064FF40052F8
S31502001F281E491F48009503F075F81E4B186050B1FC
S31502001F384FF47A7003F00AFBFAE75C211A4B0C4A53
S31502001F480C4802F001F86621184B094A094801F0C3
S31502001F58FBFF00BFB0060022AC06002220AA002220
S31502001F681008002238B4000290AA002234AD0002FA
S31502001F780CB40002F4AC000210AD0002D8AC0002A8
S31502001F88B4890022208A00224CAD0002791400028C
S31502001F98B0890022480900224889002270AD000251
S31502001FA8C11900024409002250AD000280AD0002A8
S31502001FB8704700BFFFF7FCBF00BE704738B5164C26
S31502001FC84FF0FF31206802F097FD012803D0002167
S31502001FD82068FFF7F1FF114B1A7802B138BD0122CA
S31502001FE81A70FFF7E7FF0E4D2B68013B2B60002B9B
S31502001FF8F4D0002320681A46194602F033FB01285A
S31502002008F2D000212068FFF7D7FF2B68013B2B602F
S31502002018002BEED138BD00BFD8AF0022DCAF0022BC
S31502002028E0AF002238B500230B4D0C4C01214FF4CA
S3150200203880700B4A2B60237002F0D8FA094B18609D
S3150200204828B100F037F803F0F5F8002038BD01464C
S31502002058FFF7B2FFF5E700BFE0AF0022DCAF0022D0
S3150200206890AF0022D8AF0022802330B4034D044C2F
S3150200207805600C60136030BC704700BF28AF0022B1
S3150200208828AD0022802330B4034D044C05600C6051
S31502002098136030BC704700BFC0AC0022C0AA002241
S315020020A810B50446FFF78AFF2046BDE81040FFF741
S315020020B8F7BE00BF70B505250D4C0E4923680E4EB6
S315020020C884B0581CCDE901160C4B20604FF480628F
S315020020D80B490C48009502F09DFF0B4B186008B19E
S315020020E804B070BD014604B0BDE87040FFF764BF96
S315020020F8E0AF0022A0B40022E8AF00226CB40002CE
S31502002108A8AD0002A9200002E4AF002200BEFEE745
S315020021181EF0040F0CBFEFF30880EFF309800149A4
S3150200212808470000BD2100020F4B1968EFF3098228
S315020021381EF0100F08BF22ED108A22E9F04FEFF3C6
S315020021480B8342F8043D0A604FF0100080F31188B1
S31502002158BFF34F8FBFF36F8F03F03EFA4FF00000C5
S3150200216880F3118800F002B854B2002207480168C9
S315020021780A6802CA81F30B88B2E8F04F1EF0100F04
S3150200218808BFB2EC108A82F30988704754B200225B
S3150200219810B5EFF31184102383F3118803F00CFAB8
S315020021A818B14FF08052024B5A6084F3118810BD61
S315020021B800ED00E008B5836913F8023C022B02D051
S315020021C8032B04D808BDBDE80840FFF7CFBF4FF47C
S315020021D87E71024B024A034801F0B6FEB4AD000214
S315020021E80CB70002C8AD000270B44FF080756FF0EC
S315020021F80204074E283122F0010240E9022540E98D
S31502002208094340F80C6C40F8481D70BC704700BF83
S315020022181521000208B5EFF31181102383F3118803
S315020022280A4A13680133012B136000D008BD084A15
S31502002238084B11605B68C3F30803002BF6D040F223
S31502002248A441054B054A064801F07EFE54B0002219
S3150200225850B0002200ED00E0F0AD0002F8B6000230
S31502002268C8AD000208B5094A13683BB1013B1360C1
S315020022781BB9074B1B6883F3118808BD40F2AD41B1
S31502002288044B054A054801F05FFE00BF54B0002220
S3150200229850B0002238AE0002E4B60002C8AD000211
S315020022A838B572B60B4D03F013F80B4C6B68234224
S315020022B806D10121084601F051FE6B682342F8D087
S315020022C862B6BFF36F8F72B662B6BDE8384003F0E6
S315020022D807B800BF00ED00E000F01F000D4B0E4AE4
S315020022E81B68A2FB03239B09013BB3F1807F00D342
S315020022F870474FF0E0224FF0F00C0020072110B48F
S31502002308064C536184F823C0906111615DF8044B51
S31502002318704700BFE8B00022D34D621000ED00E01E
S31502002328F02208B50B4B83F82220FFF7D7FF0A4A9B
S31502002338536B43F04043536362B6BFF36F8FEFF3B9
S31502002348148C2CF0040C8CF31488BFF36F8F02DF05
S3150200235800BEFDE700ED00E000EF00E008B5EFF390
S315020023680383103B1A0604D50E4BDB685B0511D4B2
S3150200237808BD03F0FF0202F1604303F5614393F8D7
S3150200238800331B09F0D140F20F61074B074A084890
S3150200239801F0DAFD40F22161064B044A044801F0D5
S315020023A8D3FD00BF00ED00E04CAE0002C4B6000249
S315020023B8C8AD000284AE0002844610B4006A83687F
S315020023C823F440138360DCF82040A36C5800FCD544
S315020023D8A36823F01003A360DCF82040237FC3F32D
S315020023E80010DB06FAD4CCE90312A36843F01013F3
S315020023F8A3605DF8044B704730B40124164D5309A7
S3150200240802F01F0C203304FA0CF445F82340BFF3FC
S315020024184F8FBFF36F8F114B02F5C65C53F82C40F2
S3150200242824F4803443F82C4053F82C300901002A4E
S31502002438C9B207DB0A4B154485F8001343F8220094
S3150200244830BC7047074B02F00F0423441976044B3D
S3150200245843F8220030BC704700E100E0006000400B
S31502002468A8B00022FCEC00E0F0B5846A85B0054607
S315020024780F4694466E46B4B194E80F0086E80F00FC
S31502002488EB6920461B78A760236084F804C0EB6AD0
S31502002498E3606B6A9847AC6A1CB196E80F0084E859
S315020024A80F0005B0F0BD3446EAE700BF00222DE969
S315020024B8F04101270B78027003F5800303F55653A2
S315020024C81B020362C1614B690D4643628B6904466E
S315020024D8C0E90A238378CE6967F3010383704B78D0
S315020024E8934214BF3A460222837862F30103837049
S315020024F891F90B20897AFFF77FFF95F9052029794B
S31502002508FFF77AFF95F90720A979FFF775FF95F97D
S315020025180920297AFFF770FFEFF3108887F31088EE
S315020025284FF000412A787A4BD1405A6822EA0102D2
S315020025385A605B689620394601F010FD88F31088C8
S315020025484FF48062236A9A606B78E978EA691B021B
S31502002558890301F4804103F440730B4311785068F0
S31502002568090601F040710B435178C90389B20B433E
S31502002578517B490501F400110B43216A43F4805348
S315020025884B611378991EB94240F2BB800368216AEF
S315020025980B61117BAB7801F0030141F0300133B1D5
S315020025A8022B14BF4FF440734FF480731943002073
S315020025B893781B0703F080530B43216ACB60216A89
S315020025C80123886140F21F21287883400B4202D0FA
S315020025D8236A504959620021937BD07B127C00F012
S315020025E81F0003F0010343EA002302F01F02206AD8
S315020025F843EA02430363C4E90311C4E90511226AE3
S315020026087589454825819066E269444B92F9052009
S3150200261802F5C65053F8205061F3104543F820508E
S3150200262853F82000BFF35F8F012002F01F055209FD
S31502002638920002F1604202F5614200FA05F5C2F81B
S3150200264880511560E26992F90B2002F5C65553F8D6
S31502002658256061F3104643F8256053F82550BFF309
S315020026685F8F02F01F055209920002F1604200FADA
S3150200267805F502F56142C2F880511560E26992F9E0
S31502002688072002F5C65553F8256061F3104643F84C
S31502002698256053F82550BFF35F8F02F01F055209D4
S315020026A8920002F1604200FA05F502F56142C2F8AB
S315020026B880511560E26992F9092002F5C65553F868
S315020026C8256061F3104643F8256053F82530BFF3B9
S315020026D85F8F53099B0002F01F0203F1604390408B
S315020026E803F56143C3F8800118600D4A236A9A60AC
S315020026F8226A137FDB07FCD50A4B00206360BDE81C
S31502002708F0810949022B094B18BF0B463FE700BF68
S315020027180030204000001F1F1000079D0060004087
S31502002728110401004249435304FF00FF24FF00FF3E
S31502002738EFF30383103B204A5BB203F5C65152F806
S31502002748210020F4803042F8210052F821201B4A49
S3150200275852F82300C3691B6983B1036903B1704741
S31502002768026A0021936823F4801343F400139360EA
S31502002778436AC160C3B18022FFF776BE0369026A63
S31502002788002BEED08378C16803F00303022B0CD02A
S315020027980B7813718278D0E9031302F003029B1AAD
S315020027A81144C0E90313D9E770470B8823F4DC43C5
S315020027B89BB25360EEE700BF00600040A8B000225B
S315020027C810B582B0EFF30383103B1F4A5BB203F5E1
S315020027D8C65152F8210020F4803042F8210052F8FE
S315020027E821201A4A52F82340A27802F00303022B48
S315020027F8236A0CBF19681978A3690CBFC1F30801CB
S31502002808C9B2019143B9636AB3B10422204602B040
S31502002818BDE81040FFF728BE02F0030201A960696D
S3150200282803F0E2FFD4E90521A37803F003031A446F
S31502002838C91AC4E9052109B102B010BD636A002BA1
S31502002848FAD00122E2E700BF00600040A8B00022E9
S3150200285810B5EFF303830F4A103B5CB252F824001B
S31502002868026A936823F4401323F010039360436AC1
S315020028781BB102220021FFF7F7FD074A04F5C653EA
S3150200288852F8231021F4803142F8231052F82330EB
S3150200289810BD00BFA8B000220060004038B5EFF3B3
S315020028A803831D4A103B5CB252F824008378056AFA
S315020028B803F00303022B0CBF29682978AA6C08BF08
S315020028C8C1F30801C2F30073C2F3006C4FEA0313A3
S315020028D843EA4C13C2F3C06243EAC20C18BFC9B238
S315020028E8DB06624604D5AB6C1B0458BF4CF04002AB
S315020028F8AB6E43F0C853AB66436A0BB1FFF7B4FD40
S31502002908064A04F5C65352F8231021F4803142F8D8
S31502002918231052F8233038BDA8B0002200600040C8
S315020029282DE9F84F0388DBB14FF0000A80464FF0D5
S315020029380109DFF8D4B00024314D4FEACA07D8F8A6
S31502002948043035F8022BD919898891420AD0013404
S31502002958032CF4D1B8F800300AF1010A5345EAD833
S31502002968BDE8F88FDB5909FA04F603F0B853B3F158
S31502002978807F244BF6B293F84C2C12D0324230D1D7
S3150200298804F120021BF81230DB09E0D01BF81230E2
S31502002998012123F08003C8200BF8123001F0DEFA79
S315020029A8D5E7324210D004F120021BF81230DB09B7
S315020029B8CDD11BF81230012143F08003C8200BF851
S315020029C8123001F0CBFAC2E7012001F073FB0D4B7E
S315020029D8012093F84C2C324383F84C2C01F03AFB35
S315020029E8E1E7012001F066FB064B012093F84C2C27
S315020029F822EA060283F84C2C01F02CFBC0E700BF42
S31502002A0820B7000200E0014000202040F8B5064643
S31502002A18FFF786FFEFF31082012383F31088234F13
S31502002A283B681BB9402022490B7508753B68013380
S31502002A383B6082F31088338800211BB31D4D08E0E2
S31502002A481B01134445F82340328801318BB29A425E
S31502002A5818D9736853F8314003EBC1029288E00330
S31502002A684FEA1223D2B2EBD502EB031055F820E057
S31502002A7824F4803C2EF4803E45F820E01B0145F8FC
S31502002A8820C0DEE7EFF31082012383F310883B6848
S31502002A9813B13B68013B3B603B681BB98020044984
S31502002AA80B75087582F31088F8BD00BFA0B0002226
S31502002AB8000D40400008404008B5034B0360084635
S31502002AC8FFF7A4FF002008BD54524F5030B5836B60
S31502002AD883B004460A466D46A3B193E8030085E827
S31502002AE80300E16B1A7119601846636B9847A36B6A
S31502002AF81BB195E8030083E80300002384F82B3012
S31502002B0803B030BD2B46ECE770B4002440220369BB
S31502002B181C7003691A70026913785B06FCD5C02318
S31502002B281370036802695B6A804D1B794FF0000CCB
S31502002B3843F0E0031374036802695B6AB324DB7823
S31502002B4843F0E0035374036802695B6A9B781B01CE
S31502002B5803F0700343F008039370036802695B6A23
S31502002B681E78012E5E7814BF0423052343EA460322
S31502002B78DBB2D37003685B68AB4214BF7722F722D5
S31502002B8803695A71036983F806C00369DC7191F90E
S31502002B9811204B7B6245C0F2AA801B0102F16044F8
S31502002BA8DBB204F5614484F80033614C614B44F8A6
S31502002BB8220002F5C65553F8256026F4803643F8F6
S31502002BC8256053F82530BFF35F8F012553099B0013
S31502002BD802F01F0203F1604303F5614305FA02F2AC
S31502002BE8C3F880211A6091F90F204B7B002AC0F2A4
S31502002BF895801B0102F16045DBB205F5614585F852
S31502002C0800334C4B44F8220002F5C65553F82560AA
S31502002C1826F4803643F8256053F82530BFF35F8FD4
S31502002C28012553099B0002F01F0203F1604303F5D5
S31502002C38614305FA02F2C3F880211A6091F910205D
S31502002C484B7B002A63DB1B0102F16045DBB205F50B
S31502002C58614585F80033374B44F8220002F5C6551C
S31502002C6853F8256026F4803643F8256053F8253054
S31502002C78BFF35F8F012553099B0002F01F0203F180
S31502002C88604303F5614305FA02F2C3F880211A602C
S31502002C9891F90E204B7B002A31DB1B0102F16041C0
S31502002CA8DBB201F5614181F80033224B44F8220078
S31502002CB802F5C65153F8214024F4803443F82140E2
S31502002CC853F82130BFF35F8F012153099B0002F0AD
S31502002CD81F0203F1604303F5614301FA02F2C3F8E6
S31502002CE880211A609F2203691A7070BC7047124CC1
S31502002CF802F00F051B01DBB22C44237655E70E4979
S31502002D0802F00F051B01DBB229440B76CDE70B4D0A
S31502002D181B0102F00F06DBB2AB559CE7074D1B0100
S31502002D2802F00F06DBB2AB556BE700BF40420F005D
S31502002D38A8B0002200600040FCEC00E014ED00E0C0
S31502002D4810B582B0EFF30383103B5F4A5BB203F51B
S31502002D58C65352F8231021F4803142F8231052F850
S31502002D682330EFF30383594A103B5BB252F82340F0
S31502002D7894F82D305BBBA369022B22D9E369012B98
S31502002D880ED12269137943F010031371226913795C
S31502002D9843F0080313712269137923F010031371A0
S31502002DA823685B6ADB79002B3ED101222369DB7C2F
S31502002DB8DBB28DF807309DF8073084F82D2002B073
S31502002DC810BD2269137943F040031371D6E7E3690C
S31502002DD8002BF4D02268526AD279FAB9032B17D09B
S31502002DE8022B26D0012B34D02269236AD17C626950
S31502002DF8D154D4E907320132013BC4E90732002B28
S31502002E08DDD121690A7963F386120A7102B010BD0F
S31502002E182269137943F040031371E5E70521204639
S31502002E28FFF754FEE369D9E705212046FFF74EFE70
S31502002E38BBE72269137943F01003137122691379E8
S31502002E4843F0080313712269137923F010031371EF
S31502002E58CAE794F82A2072B322681D4892F90F200D
S31502002E68510902F01F0203FA02F2203140F821202A
S31502002E78BFF34F8FBFF36F8F04202169CA7942F0DF
S31502002E888002CA7121690A7942F010020A7121691F
S31502002E980A7922F008020A7121690A7922F01002D7
S31502002EA80A712269507021694A7922F001024A712F
S31502002EB884F82C3098E708212269537A03F0F7033D
S31502002EC85372236959708FE700600040A8B0002248
S31502002ED800E100E010B5EFF30383103B434A5BB20F
S31502002EE803F5C65352F8231021F4803142F8231011
S31502002EF852F82330EFF303833D4A103B5BB252F894
S31502002F08234094F82730002B40D194F82930002B1F
S31502002F183BD123685B6ADB792BB194F82B3013B962
S31502002F28236A002B5CD1E3692169002B41D1CB7955
S31502002F38C02223F08003CB71216901E0013A02D055
S31502002F48CB79DB09FAD12368284A93F9103003F5BD
S31502002F58C65352F8231021F4803142F8231052F84E
S31502002F682330236893F91030002B09DB01215A0913
S31502002F78204803F01F03603201FA03F340F82230B7
S31502002F882269D37943F04003D37110BD94F82630F1
S31502002F98032B1CD094F8242023699A7494F82820C9
S31502002FA894F827300132013B84F8282084F8273028
S31502002FB810BD236A6269D35C8B74D4E90732013285
S31502002FC8013BC4E90732002BDFD12169AFE794F848
S31502002FD82830022BDED194F83030002BDAD110BD1E
S31502002FE805212046FFF772FD9DE700BF00600040FD
S31502002FF8A8B0002200E100E038B5EFF30383344AB3
S31502003008103B5BB252F8234023685B6ADB79002BDC
S315020030184BD194F829301BB194F82730012B52D0A2
S31502003028E369E3B12169C023CA7922F04002CA7171
S31502003038216901E0013B02D0CA795206FAD4EFF3BC
S315020030480383103B234A5BB203F5C65352F8231097
S3150200305821F4803142F8231052F8233038BD94F80F
S315020030682A203AB3012022681B4D92F90F205109F2
S3150200307802F01F02203100FA02F245F82120BFF3BE
S315020030884F8FBFF36F8F4FF0040C2169CA7942F054
S315020030988002CA71226982F801C021694A7963F3FA
S315020030A800024A7184F82C00BCE705212046FFF786
S315020030B80DFDAEE708212269537A03F0F70353722E
S315020030C823695970AEE794F83030002BAAD0A7E7E7
S315020030D8A8B000220060004000E100E038B5EFF336
S315020030E803834C4A103B5BB252F823000269537AB7
S315020030F8517ADC0601F0E00151725FFA83FC03F0B3
S3150200310803022CD503695978490648D400240125B7
S3150200311880F82B50DC710168FFF7F6FCB32290F8B1
S315020031282630816980F82830036980F82C400162CC
S31502003138C46180F82A402946DA71FFF7C7FCEFF323
S315020031480383103B344A5BB203F5C65352F8231085
S3150200315821F4803142F8231052F8233038BD002A70
S3150200316856D11CF0080F0ED090F82B30002B3ED10A
S31502003178B32290F829100369C1F10301C9B2DA71C1
S31502003188FFF7A4FCDBE790F82C200CF004032AB323
S31502003198002BD4D090F82B30002B37D1E8E7002A41
S315020031A8B4D15A78C2F380115206DAD5082280F8C9
S315020031B82B105A70036801695A6A947913785279FE
S315020031C843EAC41343EA021343F00203DBB2CB70A9
S315020031D80269537943F001035371B0E7002BAED06D
S315020031E803685B6ADB79002BA9D00421C8E70023B0
S315020031F8B32190F826508469026980F82C3080F849
S3150200320828500462C36180F82A30D1710121B7E7D8
S3150200321803697BE7A8B00022006000401F2910B5A9
S315020032283FD84C2401F0070E04FB0EFECB080EEB2A
S31502003238832E0EF5126E8644DEF80030C3F38074D0
S315020032485471DEF8084004F00704946023F06044E1
S31502003258DB0F14601371DEF804301A4C1B0FE45CA2
S315020032680EF10C03947164B10C34A644AEEB030E52
S315020032784EF001E00B3213F801CB02F801CF0FF042
S3150200328807C01F2904D801238B40DB43436310BDC3
S3150200329827294FF0FF030FD9123900EB81014B6042
S315020032A810BD4FF04C0E0EFB010E27298CBFAEF552
S315020032B8C56EAEF58C6EBFE70E3900EB8100436032
S315020032C810BD00BF28B7000270B5456904460E4610
S315020032D898B0A5B160222946684603F085FA6022AD
S315020032E83146284603F080FA2846236998476069DA
S315020032F818B16022694603F077FA18B070BD0D4618
S31502003308F2E700BF10B40C06026801F00F0C37D4BE
S315020033185468630725D4E30702D4BCF1050F22D00B
S31502003328536823F0070343EA0C035360936803F0D8
S3150200333807039C45FAD1A40703680BD0CA0709D428
S315020033484268596D1269D269926902F001020A430A
S315020033585A6503685B685DF8044B03F00703037359
S315020033687047CB07D7D4536823F0070343F001030A
S315020033785360936803F00703012BFAD10268CFE77B
S31502003388946914F0010401D1CB0719D4936923F087
S31502003398070343EA0C039361D36903F007039C45C9
S315020033A8FAD10368002CD5D0CA07D3D44268126969
S315020033B8D2699168D9630368D2681A640368C9E74F
S315020033C8D36B23F00103D3630268136C23F0010362
S315020033D813640268536D23F0010353650268D5E747
S315020033E8002370B54468836094F91530002B0DDB11
S315020033F80121344D5A0903F01F03203201FA03F35F
S3150200340845F82230BFF34F8FBFF36F8F94F9173009
S31502003418002B0DDB01212B4D5A0903F01F03203225
S3150200342801FA03F345F82230BFF34F8FBFF36F8FCC
S3150200343894F91630002B0DDB0121224D5A0903F0AF
S315020034481F03203201FA03F345F82230BFF34F8FE8
S31502003458BFF36F8F23681C4DB3FA83F35B0955F8E4
S315020034682330F3B18121FFF74DFF8521FFF74AFF8C
S31502003478EFF31086012181F31088144A23689068B5
S31502003488C3F11B0301FA03F303439360936896207F
S3150200349800F064FD86F310880020236845F82300AF
S315020034A870BD8022074BC3F88020BFF34F8FBFF34E
S315020034B86F8F4FF48072C3F88020BFF34F8FBFF32C
S315020034C86F8FCFE700E100E058B0002200302040BD
S315020034D870B5137955791468DB0743EA857327298A
S315020034E8056843EA04033AD86C1894F8744024072A
S315020034F862D44C2404FB0155C5F804369479082C89
S3150200350803D9182C5BD924090B344C2301FB03F38A
S31502003518056826071D44C5F808669668056806F014
S3150200352807061D44C5F80C66957902F10C0C02686B
S3150200353803F5C2630C461344002D4AD045F001E058
S315020035481CF8012B03F8012B0FF007C02729036883
S315020035582CD80122234483F87020002070BD4C2603
S31502003568A1F1280406FB0455C5F8B8359379082B4A
S3150200357803D9182B28D91B090B331D074C2304FB27
S3150200358803F3066802F10C0C1E44C6F8BC5596688D
S31502003598056806F007061D44C5F8C06595790268F0
S315020035A803F2C4531344002DC8D11346FF2216341E
S315020035B803EB84035A60D0E74EF6632070BD083CDD
S315020035C8A4080834E4B2A0E7083B9B080833DBB238
S315020035D8D3E71346BDE700BF00222DE9F04FD1F825
S315020035E800900E6909F5003505F5E0756D03C0E929
S315020035F800518B6883B00361CB688A46C0E905230C
S315020036088046F769EFF31084012181F31088B94BDC
S31502003618C9F11B009A6801FA00F022EA00029A60D0
S315020036289B68962000F09AFC84F31088EC6914F0E3
S315020036380804FBD140468121FFF764FE4FF480302F
S315020036487A68AD4B6A61E862C5F8B0403A69AB4838
S315020036582A63BA68AA49EA63FA682A647A7D04621E
S315020036681201D2B283F80823D1F8202364F3104258
S31502003678C1F82023D1F82023BFF35F8F4FF480705F
S31502003688C3F8800118603A68AA61BA6922F0010291
S315020036986A65B9F1000F00F00E819A4BB9F1010F74
S315020036A843F8298040F002814FF0100E964B98623B
S315020036B837684FEA0E1EAEF1100E4FEA1E1E0EF1C5
S315020036C8010E4EF001E04FF4807B09F001090196E4
S315020036D804F11206C5F828B005EB061697E80F009E
S315020036E886E80F0005EB041CDCF82831103769F36D
S315020036F8C7130134CCF828310FF017C00024012172
S315020037084046AC62019EFFF7FDFDDAF804100B682D
S315020037184A68013B013AC3F3090343EA4243D1E942
S315020037280202411E43EA4163013A43EA82232B60BD
S3150200373871690B684A68013B013ADBB243EA022324
S31502003748D1E90202411E013A43EA014343EA02630E
S31502003758C5F8003173695A68337EFF2A28BFFF22EB
S315020037685B0243EA024343F4806343F00103C5F86C
S315020037780431B368C5F88830336943F003036B60D4
S315020037889AF91530A34227DB9AF8142003F160410F
S315020037981201D2B201F5614181F8002357495B4A09
S315020037A841F8238003F5C65152F8210064F310400C
S315020037B842F8210052F82120BFF35F8F01215A09EE
S315020037C8920003F01F0302F1604202F5614201FA18
S315020037D803F3C2F8803113609AF91730002B27DBFE
S315020037E89AF8142003F160411201D2B201F561413F
S315020037F881F800234149454A41F8238003F5C65119
S3150200380852F8210020F4803042F8210052F8212093
S31502003818BFF35F8F01215A09920003F01F0302F1D9
S31502003828604202F5614201FA03F3C2F8803113607D
S315020038389AF91630002B27DB9AF8142003F1604018
S315020038481201D2B200F5614080F800232B482F49B5
S3150200385803F5C65240F8238051F8220020F480303E
S3150200386841F8220051F82220BFF35F8F01215A093D
S31502003878920003F01F0302F1604202F5614201FA67
S3150200388803F3C2F88031136040468021FFF73AFD00
S315020038980021FFF737FD4FF0000300201C4AA8F865
S315020038A80C30C8F8082003B0BDE8F08FA8624FF0C4
S315020038B8010E3768FDE63A7D104F1201D2B2C7F8FB
S315020038C81C8083F80723D1F81C2369F31042C1F838
S315020038D81C23D1F81C23BFF35F8F8022C3F88021F3
S315020038E81A60084B4FF0010EC3F80080094B986224
S315020038F83768DEE60030204000E100E0A8B000228A
S3150200390800C0004058B00022002038400060004045
S315020039184446435200003840F0B599B0EFF30383AA
S31502003928103B5BB2072B3FD100272D4D05F1080648
S3150200393855F8044BCCB160220021684602F032FFEA
S315020039484FF48053ADF80430236869461B6A204653
S315020039581A0C1B0403EB0273029322689B03176279
S3150200396813D4A3690493FFF7AFFCB542E0D1072449
S315020039781C4A04F5C65352F8231021F4803142F842
S31502003988231052F8233019B0F0BD23689B6E93FAC0
S31502003998A3F3B3FA83F30393226802EB83035A6C05
S315020039A822F004025A64DCE71C460F4B602200210F
S315020039B8684653F8245002F0F5FE4FF4807300224D
S315020039C8ADF804302B686946DB6828469BB2029339
S315020039D82B68DA60AB690493FFF776FCC8E700BF89
S315020039E858B0002200600040A8B000222DE9F04736
S315020039F8294F98B0BA465AF8043BCBB1002674034D
S31502003A0804F1804404F56014E56E95FAA5F51DB136
S31502003A18B5FA85F5012D15DDE36E43B91F4AD2F8CD
S31502003A28201363F31041C2F82013D2F8203336B9B3
S31502003A38DAF800301BB101260AF1040ADFE718B0EA
S31502003A48BDE8F0874FF001084FF48062236E08FA4A
S31502003A5805F805F1200913EA080FCDF80C90ADF820
S31502003A68042011D14946204605AA0096FFF7D6FB3F
S31502003A78009B694657F8230083690493FFF724FCE1
S31502003A88236E13EA080FEDD004EB85056B6C23F061
S31502003A9808036B64C0E700BF58B0002200C00040AC
S31502003AA8F0B599B0EFF30384314B103C64B253F886
S31502003AB824707B68BA6919681D69009104923E6888
S31502003AC896F8A43033BB43E04FF400633A68803279
S31502003AD8ADF80430136893FAA3F31BB1B3FA83F370
S31502003AE8072B07DD536893FAA3F3002B3DD0B3FAED
S31502003AF883F320333968194491F8742022F00602B8
S31502003B0881F87420694638460393FFF7DDFB96F879
S31502003B18A430EBB196F8A430D907DAB2D4D4130795
S31502003B2811D5EA692823926912F4805F0CBF4FF413
S31502003B3800524FF40062ADF8042039688A6D22F00B
S31502003B4810028A65DEE73A684FF400738432BFE7EB
S31502003B58084B04F5C65453F8242022F4803243F85D
S31502003B68242053F8243019B0F0BD4023C2E700BF21
S31502003B78A8B000220060004070B598B0EFF3038643
S31502003B884FF4806228231B49103E76B251F826402C
S31502003B9861680968ADF80420039300912068036EF2
S31502003BA8DA0510D4144D282105AAFFF737FB009B26
S31502003BB8694655F8230083690493FFF785FB206855
S31502003BC8036EDB05EFD5836D23F00803836523684F
S31502003BD89B6D13F008030AD1084A06F5C65652F831
S31502003BE8261063F3104142F8261052F8263018B010
S31502003BF870BD00BFA8B0002258B000220060004085
S31502003C081E4A92F8263092F82420DBB202F00F02FE
S31502003C18A2F1080103292BD8DFE801F020160C02CD
S31502003C281749184A51F82330A2FB03231B09164ADF
S31502003C38136070471249134A51F82330A2FB032333
S31502003C48114ADB08136070470D490E4A51F82330B2
S31502003C58A2FB03230C4A9B08136070470849094ACA
S31502003C6851F82330A2FB0323074A5B081360704707
S31502003C78034951F82330D340D9E700BF00E0014099
S31502003C8860060022ABAAAAAAE8B00022704700BFC3
S31502003C98F8B54AF20350012379497A4AA1F8FA0398
S31502003CA8938093889BB2002BFBD101244FF40040EA
S31502003CB89FED6F6B9FED707B734B7449C3E90711D8
S31502003CC85961148083ED007F1861FFF799FF092275
S31502003CD806216B4B83F8501A83F8A22093F8002C1E
S31502003CE822B993F8013C980700F0BA80644C94F81C
S31502003CF8003C002B00F0A9800022614B83F8012CBE
S31502003D0883F8002C00235E4A82F8363082F8323075
S31502003D1892F83C301907FBD545F6017040F21111AD
S31502003D280023574C1085A2F84C1082F82A3094F8D2
S31502003D383C309B06FBD5042201250526514B544FE0
S31502003D481A77276284F8245084F82660FFF758FF0A
S31502003D582946962000F002F9002384F824302762C7
S31502003D68FFF74EFF2946962000F0F8F884F82660F9
S31502003D78FFF746FF4AF20152464B1A80BFF35F8F9E
S31502003D881D72BFF35F8F4FF42541198084F83050B6
S31502003D9884F8525084F8535094F87630384A43F0EF
S31502003DA8400384F8763092F87630DB09FBD0C523D7
S31502003DB8042082F86E0082F8763092F8763030491E
S31502003DC803F0BF0382F8763091F87630DB09FBD12F
S31502003DD891F855302A4A43F0400381F8553092F853
S31502003DE85530DB09FBD0C523022082F8540082F83D
S31502003DF8553092F85530224903F0BF0382F8553000
S31502003E0891F85530DB09FBD191F857301C4A43F03B
S31502003E18400381F8573092F85730DB09FBD0C023AC
S31502003E28022082F8560082F8573092F85730144921
S31502003E3803F0BF0382F8573091F85730DB09FBD1FC
S31502003E484FF42543A1F8FA33F8BD0121C82084F8B6
S31502003E58001C00F083F894F8003C012BFBD14BE7D9
S31502003E684FF47A70FFF712FF4CE700BFAFF30080FA
S31502003E78006CDC0200127A0000800000002D31017D
S31502003E8800E0014000C101406006002200389C1C87
S31502003E98322312310020004038B50025284C012172
S31502003EA8C82084F8285000F059F884F8245094F869
S31502003EB82430002BFBD194F82430214943F0020325
S31502003EC884F8243091F82430C3F340009B07F9D4D0
S31502003ED81B4A81F8220092F8223003F0FF00002BD9
S31502003EE8F9D192F84030164960F3C71382F8403088
S31502003EF891F84030DB09FBD191F84200104A63F38E
S31502003F08C71081F8420092F84230DB09FBD192F8D9
S31502003F1844000B4963F3C71082F8440091F8443011
S31502003F28C3F3C014DB09F9D1012000F0C3F8054B2D
S31502003F38012083F84C4CBDE8384000F08BB800BF2E
S31502003F480020204000E0014000BEFEE7000000001D
S31502003F58A0F101000028FBD1704700BF1E4B1F4A83
S31502003F681B6800FB01F1934213D302F1854202F565
S31502003F78071203F5742302F6834203F23F23A2FBD8
S31502003F8803239B0CA3FB01314FF0FF30E1B1FFF78E
S31502003F98DFBF4FF47A7210B4114C4FF0FF30B4FB06
S31502003FA8F3F3A1FB02C434B9BCFBF3F080B15DF8AC
S31502003FB8044BFFF7CDBFB1FBF3F1A1FB0212002AB6
S31502003FC8F5D1084620B1F2E71846002BDFD1704733
S31502003FD85DF8044B704700BFE8B0002200127A0071
S31502003FE800CA9A3B70B500240D4B0E4EB3F8002159
S31502003FF8B3F82051ADB2154025FA04F3DB0704D510
S3150200400856F82430E0B203B198470134102CF3D1A4
S31502004018034AA2F81051B2F820311D42FBD170BDF5
S3150200402800C0004060B0002200220D2310B40748E9
S31502004038074C30F8021B02F5C65C013209B144F896
S315020040482C10013BF5D15DF8044B7047A8B6000267
S3150200405800600040EFF31081012383F31088124BAE
S3150200406833F8102092B22AB133F81020013A92B2EC
S3150200407823F8102033F810309BB293B910B40B4AC8
S315020040880B4CB2F8FA3334F810009BB243F42543CA
S3150200409823EA0003A2F8FA3381F310885DF8044B89
S315020040A8704781F310887047DCB0002200E00140B7
S315020040B8B8B8000230B4EFF31081012383F31088F5
S315020040C80E4A32F810309BB26BB90D4C0D4DB4F84E
S315020040D8FA3335F810C09BB243EA0C0343F425437E
S315020040E89BB2A4F8FA3332F8103001339BB222F8A5
S315020040F8103081F3108830BC704700BFDCB0002254
S3150200410800E00140B8B8000208B502F057FB0C22DD
S3150200411803461A604FF0FF3008BD00BF00BE704765
S3150200412808B500F035F8FDF77DFFFEE7F8B5174F3D
S3150200413805463E68A6B17C6806EB460604EB86068B
S3150200414802E00C34B4420BD0637AAB42F9D1D4E91B
S3150200415800020021121A0C3402F024FBB442F3D1F5
S31502004168BE6896B1FC6804EB061602E01034A64255
S315020041780BD0637BAB42F9D1D4E90002A168121ACB
S31502004188103402F031FBA642F3D1F8BD38B700026B
S315020041985E4B5F4A70B55A61BFF34F8FBFF36F8F9D
S315020041A81B6803F47002B2F5801F00F0868013F4D0
S315020041B8600F6ED0574A136843F004031360BFF3C7
S315020041C84F8FBFF36F8F4FF47002534B4F4C002043
S315020041D8C4F88820A360FDF74BFEFFF759FD0120BE
S315020041E8FDF746FE4D4B83F30A884A4B1A68920737
S315020041F803D5A268B2F1007F63D00020FFF796FFCD
S31502004208FFF7FEFCFFF748FE0320FFF753FF0023E4
S315020042184FF00C0E1C464EF001E0414903F10C0228
S3150200422821F8224001330FF007C80320FFF712FFD7
S315020042380320FFF73FFF3B4B03205C609C60DC607A
S315020042481C61FFF707FF0220FDF712FE0120FFF7A8
S315020042586DFFBFF34F8FBFF36F8F2C4BC3F85042DE
S31502004268BFF34F8FBFF36F8F2F4B304D5B1B002B66
S315020042784FEAA30606DD002455F8043B01349847A5
S31502004288A642F9DCFFF7D0FEBDE87040002000F038
S315020042984FB8204A136843F004031360BFF34F8FE5
S315020042A8BFF36F8F4FF0E022936843F48033936035
S315020042B8BFF34F8FBFF36F8F85E719077FF47AAF86
S315020042C875E7012100261A695869C2F3C30309333F
S315020042D801FA03F3002400253246DB0843F005C041
S315020042E8E2E802450FF005C0C0F3C303093301FA39
S315020042F803F34FF00052DB0843F007C0AFF3008028
S31502004308E2E802450FF005C077E700BF00ED00E0DE
S3150200431801020E0000E001E0000000026002002235
S31502004328000D40400040204094BE000290BE0002AC
S31502004338704700BF4FF0FF31002200F10803C0E9C1
S315020043480131C0E903330260704700BF00230361ED
S31502004358704700BF30B40D686B1C10D000F108031B
S315020043681C465B681A68AA42FAD94B6099608C6047
S3150200437861600861036830BC0133036070470469F1
S315020043886368F2E70369D0E901128A6041685160FD
S315020043985A68824204BF82685A600022026118681B
S315020043A801381860704700BF70B51646026C04469D
S315020043B8856B2AB90668013510464EB3A56370BDEA
S315020043C88EB9406802F010FA6368216CA2680B4441
S315020043D89342636028BF236805F1010528BF63601D
S315020043E8A563002070BDC06802F0FEF9226CE3687E
S315020043F821689B1A8B42E360C2F1000202D2A368CB
S315020044081344E360022E08D00135A563002070BD6F
S31502004418A06801F0BBFAA660D0E7012D38BF0125D6
S31502004428DEE700BF70B50546FDF7F4FE95F84530A0
S315020044385CB2002C14DD05F1240603E0631EDAB231
S315020044485CB26AB16B6A5BB1304601F06DF900285D
S31502004458F4D001F037FA631EDAB25CB2002AF1D15F
S31502004468FF2385F84530FDF7FDFEFDF7D3FE95F8E7
S3150200447844305CB2002C14DD05F1100603E0631E1D
S31502004488DAB25CB26AB12B695BB1304601F04CF91B
S315020044980028F4D001F016FA631EDAB25CB2002ADA
S315020044A8F1D1FF2385F84430BDE87040FDF7DABE46
S315020044B870B5002848D0C56B0446002D3DD0026C65
S315020044C8A2FB0525002D38D10E46FDF7A3FED4E939
S315020044D80F30FF2100FB03F32268181A62601344A7
S315020044E80244A563C4E9023284F8441084F84510EC
S315020044F8BEB923691BB9FDF7B5FE012070BD04F1EB
S31502004508100001F011F90028F5D04FF08052124B35
S315020045185A60BFF34F8FBFF36F8FFDF7A3FE0120DB
S3150200452870BD04F11000FFF705FF04F12400FFF740
S3150200453801FFFDF797FE012070BD4FF4B671074BD8
S31502004548074A0848FFF700FD40F23711064B044AAE
S315020045580448FFF7F9FC00BF00ED00E0ECAE0002EC
S315020045686CB90002B8AE0002E4AE000270B582B0C1
S3150200457823B30546D8B10E461C4682B1B9B14823C3
S315020045880193019B482B20D101212046C4E90F56ED
S315020045982260019BFFF78CFF204602B070BD31B93D
S315020045A848230193019B482B0FD12246ECE74FF48F
S315020045B8D871094B094A0A48FFF7C6FC4FF4C2717B
S315020045C8084B064A0648FFF7BFFC4FF4CB71064B69
S315020045D8024A0348FFF7B8FC3CAF000250B9000292
S315020045E8B8AE000210AF000220AF000230B583B0A9
S315020045F8B8B1884203460D4613D31446FAB1482287
S315020046080192019A482A13D10022E3630121204626
S3150200461824602264019BFFF74BFF2046A56303B083
S3150200462830BD4FF45E71094B094A0A48FFF78CFC04
S315020046384FF4CB71084B094A0648FFF785FC4FF43D
S31502004648C271074B054A0348FFF77EFC48AF0002D2
S315020046582CB90002B8AE000220AF000250B900021F
S3150200466810AF00022DE9F04184B00192002800F053
S31502004678AF8004460F461E46002900F08B80022EA4
S3150200468803D1E36B012B40F09C8001F021F900284D
S3150200469867D0FDF7BFFDA26BE36B9A4253D3022E96
S315020046A851D00020DFF8448105460DE0FDF7DAFD1A
S315020046B82046FFF7B7FE00F013FEFDF7ABFDA26B2F
S315020046C8E36B01209A423ED3019B002B6DD0B0B317
S315020046D8FDF7C8FD00F0FCFDFDF79CFD94F844309B
S315020046E8FF2B08BF84F8445094F84530FF2B08BFC7
S315020046F884F84550FDF7B6FD02A801A901F09AF81B
S31502004708002858D1FDF786FDA26BE36B9A42CDD1FC
S31502004718FDF7A8FD019904F1100000F0B5FF204647
S31502004728FFF780FE00F0DCFD0028C6D14FF080536B
S31502004738C8F80430BFF34F8FBFF36F8FBDE702A8E7
S3150200474801F06CF8C4E7324639462046FFF72CFEDC
S31502004758636A83B9A8B9FDF785FD012004B0BDE8EF
S31502004768F081019B002B94D040F2BB311C4B1D4AB1
S315020047781D48FFF7E9FB04F1240000F0D5FF0028E5
S31502004788E9D04FF08052194B5A60BFF34F8FBFF3EF
S315020047986F8FE0E7036C002B3FF471AF40F2B7313D
S315020047A8134B104A1048FFF7CFFBFDF75BFD0020BD
S315020047B804B0BDE8F0812046FFF734FE00F090FD14
S315020047C8F5E74FF46E710B4B064A0748FFF7BCFB39
S315020047D840F2B631084B034A0348FFF7B5FB00BF60
S315020047E8F8AF000218B90002B8AE000200ED00E008
S315020047F850AF0002A8AF0002E4AE000230B583B0A3
S31502004808A1B348230193019B482B36D100250123E6
S315020048180C46C1E90F350960019AFDF7FBFCD4E99C
S315020048280F31FF2001FB03F32268591A6260134411
S315020048380A44C4E90232A56384F8440084F84500B0
S3150200484804F11000FFF776FD04F12400FFF772FD6C
S31502004858FDF708FD2B462A4629462046A56025600F
S31502004868E560FFF7FFFE204603B030BD4FF4C27184
S31502004878054B064A0648FFF767FB4FF4CB71054B13
S31502004888024A0348FFF760FB10AF000250B9000264
S31502004898B8AE000220AF00022DE9F04100284ED042
S315020048A804460D4617461E4600293ED0022E2CD136
S315020048B8E36B012B4AD1FDF751FDEFF31188102363
S315020048C883F31188A36B94F845302946A06B5DB231
S315020048D832462046FFF768FD6B1C0AD1636A93B11C
S315020048E804F1240000F020FF68B167B101233B60A0
S315020048F809E000F05BFE854205D27F2D2DD00135F9
S315020049086DB284F8455001200BE0FDF727FDEFF361
S315020049181188102383F31188A26BE36B9A42D2D3D0
S31502004928002088F31188BDE8F081036C002BBDD006
S3150200493840F291410C4B0D4A0D48FFF705FB4FF427
S3150200494892610C4B094A0A48FFF7FEFA40F2924175
S31502004958094B064A0648FFF7F7FA40F21E51074B7B
S31502004968024A0348FFF7F0FA50AF0002FCB8000209
S31502004978B8AE0002E4AE0002A8AF00024CB00002D4
S31502004988F0B585B00192002800F0A38004460E46D1
S3150200499800296ED000F09CFF002857D0FDF73AFC9C
S315020049A8A56B002D6FD1019B002B35D002A800F014
S315020049B835FF2F46FDF756FC00F08AFCFDF72AFC68
S315020049C894F84430FF2B08BF84F8447094F84530B5
S315020049D8FF2B08BF84F84570FDF744FC01A902A81D
S315020049E800F028FFE8B9FDF715FCA36B33BBFDF70A
S315020049F839FC019904F1240000F046FE2046FFF72F
S31502004A0811FD00F06DFC58B3FDF704FCA56B002DF3
S31502004A1839D1019B002BCDD1FDF724FC002005B02E
S31502004A28F0BD2046FFF7FEFC00F05AFCFDF7F2FB4C
S31502004A38A36B002BF0D0FDF715FCE5E7FDF712FC9A
S31502004A482046FFF7EFFC00F04BFCDDE7019B002B4D
S31502004A58A4D040F2F251224B224A2348FFF774FAB5
S31502004A684FF08052214B5A60BFF34F8FBFF36F8FBF
S31502004A78CAE7036C002B8DD040F2ED511C4B194A44
S31502004A881948FFF761FA226C5AB1D4E90231114486
S31502004A989942E16028BF2168304628BFE16001F0EB
S31502004AA8A3FE2369013DA56323B9FDF7DBFB0120BC
S31502004AB805B0F0BD04F1100000F036FE0028F4D06F
S31502004AC84FF08052094B5A60BFF34F8FBFF36F8F77
S31502004AD8EBE740F2E951074B024A0348FFF734FA7B
S31502004AE8F8AF0002ECB80002B8AE000200ED00E032
S31502004AF8FCB00002F0B00002F0B585B001910028C2
S31502004B0800F0BA80066C0446002E40F0AE8000F033
S31502004B18DFFE0546002855D03546FDF77BFBA36B1D
S31502004B280027002B41D1019B002B7FD0002D63D09B
S31502004B38FDF798FB00F0CCFBFDF76CFB94F84430CC
S31502004B48FF2B08BF84F8447094F84530FF2B08BF42
S31502004B5884F84570FDF786FB01A902A800F06AFEF3
S31502004B6800283AD1FDF756FBA36B002B4BD1FDF774
S31502004B7879FB2368002B5CD0019904F1240000F02C
S31502004B8883FD2046FFF74EFC00F0AAFB38B94FF02A
S31502004B9880523D4B5A60BFF34F8FBFF36F8FFDF7BD
S31502004BA839FBA36B0125002BBDD02268013BA36309
S31502004BB8002A56D02369002B44D1FDF753FB012066
S31502004BC805B0F0BD019B0646002BA6D040F28B61CC
S31502004BD82E4B2F4A2F48FFF7B7F92046FFF722FC3C
S31502004BE800F07EFBFDF716FBA36B4BB9FDF73AFB0C
S31502004BF88EB9002005B0F0BD02A800F00FFE97E7B7
S31502004C08FDF730FBCBE7FDF72DFB2046FFF70AFC45
S31502004C1800F066FBC3E7FDF7FDFA616A19B1236B7B
S31502004C281968C1F10601A06800F006FFFDF71AFB34
S31502004C38DFE7FDF7EFFAA06800F05AFE0646FDF731
S31502004C4811FB99E704F1100000F06EFD0028B4D0BC
S31502004C584FF080520C4B5A60BFF34F8FBFF36F8FE2
S31502004C68ABE700F049FFA060A4E740F286610A4B71
S31502004C78074A0848FFF768F940F28261074B044A77
S31502004C880448FFF761F900BF00ED00E0F8AF000243
S31502004C98D8B80002B8AE000270B00002F0B0000246
S31502004CA870B518B3F1B10024144D0A222B46A44656
S31502004CB805E0013A0CF1010C03F108030FD05E6816
S31502004CC8864210D0002CF4D155F83C600CF1010C48
S31502004CD8002E08BF1C46013A03F10803EFD10CB1B6
S31502004CE8C4E9001070BD05EBCC04F9E740F6C931FA
S31502004CF8034B044A0448FFF727F900BFF0B0002225
S31502004D08B0AE0002C4B80002B8AE000270B50446DE
S31502004D180E461546FDF77EFA94F84430FF2B04BF7B
S31502004D28002384F8443094F84530FF2B04BF00234F
S31502004D3884F84530FDF796FAA36B23B12046BDE801
S31502004D487040FFF76FBB04F124002A46314600F093
S31502004D58B9FC2046BDE87040FFF764BB2DE9F8436D
S31502004D680446264B2648274A274DD0F8009017684E
S31502004D78D3F8008028680E460430FFF703FB631C4D
S31502004D8817D02B6819EB04045C600BD229683846E5
S31502004D980431FFF7DFFA1D4B1A68A24200D91C60DC
S31502004DA8BDE8F88329684046BDE8F8430431FFF7B1
S31502004DB8D1BA76B92B6809F1FF325A60B9F1000FF8
S31502004DC8F0D1296838460431FFF7C4FA0F4B1B683D
S31502004DD8E6E70F4B2A6859682C6891602A68886842
S31502004DE80432E060426028681A682C68043001328E
S31502004DF888601A606361BDE8F88300BFACB100221F
S31502004E0864B10022B0B1002254B2002248B1002295
S31502004E186CB1002280B54FF08059124C124E134DD8
S31502004E28134FDFF850800EE0FDF7F4F9F368D868FF
S31502004E380430FFF7A7FA2B68013B2B602368013B76
S31502004E482360FDF70FFA2368002BEDD13B68012B8F
S31502004E5805D9C8F80490BFF34F8FBFF36F8FFDF7DC
S31502004E681FFAF0E780B1002284B1002268B100225D
S31502004E78DCB1002200ED00E02DE9F84F594B1C6821
S31502004E8801341C60002C00F08280DFF87C81D8F89F
S31502004E9800309C4273D3544D2B681868002800F0E2
S31502004EA88D800020DFF864B10646504ADFF860C1FB
S31502004EB85CE0D9689F68D3F81490B9609F6803F1DB
S31502004EC8040E4F60D9F80410714504BFD968C9F8B1
S31502004ED804105E61D9F800100139C9F80010D3F838
S31502004EE82890B9F1000F13D0D3E90771B960DF69C9
S31502004EF803F1180A4F60D9F80410514504BF196A1C
S31502004F08C9F804109E62D9F800100139C9F80010D0
S31502004F18D96ADBF80090494588BFCBF8001001EB47
S31502004F28810102EB810149689960D1F80890C3F8BA
S31502004F380C90C9F804E0C1F808E0D96ADCF80090D8
S31502004F4801EB810E02EB8E01596152F82E10D5F84B
S31502004F5800A0013142F82E10D3F82CE0D9F82C1013
S31502004F68DAF800308E4588BF01203BB32B68DB6830
S31502004F78DB6859688C429CD2C8F8001000E0002011
S31502004F881B4B1B68002B18BF0120BDE8F88F164B78
S31502004F981A681268FAB9174A1868156816491D6018
S31502004FA810600A6801320A601A6812685AB94FF024
S31502004FB8FF33DFF85480C8F8003068E74FF0FF3354
S31502004FC8C8F80030DCE71B68DFF83C80DB681B6842
S31502004FD8C8F800305BE741F25F21084B084A0948E6
S31502004FE8FEF7B2FF64B10022B0B10022DCB10022A2
S31502004FF854B10022ACB1002250B100228CB1000299
S315020050083CBA000260B1000248B1002260B1002237
S3150200501854B200222DE9F04782B00C9CDDE90A6AF7
S31502005028BAF1000F00F0D580002C00F0CB8098462C
S31502005038682301931546019A9A4240F0BC80894634
S3150200504805F18045013D0746002120460AEB850504
S31502005058019B25F0070501F0A5FBC4F830A0B9F1BC
S31502005068000F10D04FF0100C09F1FF3E04F1330384
S315020050781EF9011F03F8011F11B1BCF1010CF7D18A
S31502005088002384F84330052E00F28E8004F10409C9
S315020050984846E6626664FFF759F9C6F1060604F160
S315020050A81800FFF753F943463A462846216B24610E
S315020050B8A6616462FDF798F82060FDF7ABF8484AE6
S315020050C8484D1368013313602B68002B40D0464FB6
S315020050D8E36A3A68002A34D0444E454945480A6884
S315020050E801320A6002689A4238BF036003EB8303FF
S315020050F806EB83035B68A3609A68E260C2F80490D1
S31502005108C3F80890E36A03EB83039A0006EB83036A
S315020051186361B3580133B350FDF7A4F83B6863B132
S315020051282A68E36AD26A9A4207D24FF08052324B11
S315020051385A60BFF34F8FBFF36F8F204602B0BDE8A8
S31502005148F0872A68294ED26A934228BF2C60C4E7A0
S315020051582C601368012B03D0E36A244E224FBCE766
S31502005168224E374606F1780838461437FFF7E2F832
S31502005178B845F9D1DFF8B880204F4046FFF7DAF88C
S315020051883846FFF7D7F81E48FFF7D4F81D48FFF749
S31502005198D1F81D48FFF7CEF81C4BC3F800801C4B0C
S315020051A81F60E36A104F98E740F26471194B1A4A76
S315020051B81A48FEF7C9FE40F2FA41194B194A17482E
S315020051C8FEF7C2FE40F2F241174B164A1348FEF7A3
S315020051D8BBFE40F2F141154B124A1048FEF7B4FEE7
S315020051E868B1002254B200225CB10022DCB100226E
S315020051F84CB1002260B1002200ED00E0B4B10022F9
S3150200520898B1002284B100226CB10022B0B100220A
S31502005218ACB100225CB2000290BA000260B1000290
S3150200522840B20002A8BA000224B2000204B2000286
S31502005238C8B1002230B500248DB01B4B07AA06A9B7
S3150200524805A80893CDE905448DF82440FCF70CFF20
S315020052580699059D2346CDE901151448079A009437
S3150200526808A9FFF7D7FE124B186018B9114B1B682D
S315020052780DB030BD00F0F2FD012808D00130F5D19D
S3150200528840F6A9610C4B0D4A0D48FEF75DFE80F308
S3150200529810884FF0FF350B490B4A0C4B0D60106016
S315020052A81C60FDF73DF8E1E749444C451D4E0002F6
S315020052B844B10022BCBA000270B2000260BA00020F
S315020052C860B1000248B100225CB1002264B100223A
S315020052D8024A136801331360704700BF40B10022C7
S315020052E82DE9F047604CFCF795FF2368002B00F088
S315020052F8B3802368013B23602068002840F09E8023
S315020053085A4B1B68002B00F09980594D2B68002BCD
S3150200531800F09F804FF0010C564E574ADFF86CA1F9
S31502005328DFF87881EB68DB68196ADF69D3F828E069
S31502005338B960DF6903F118094F60DEF804104945C0
S3150200534804BF196ACEF804109862DEF80010013913
S31502005358CEF80010D9689F68D3F814E0B9609F6840
S3150200536803F104094F60DEF80410494504BFD96801
S31502005378CEF804105861DEF800100139CEF8001094
S31502005388D96AD6F800E0714588BF316001EB810120
S3150200539802EB810149689960D1F808E0C3F80CE08C
S315020053A8CEF80490C1F80890D96A01EB810E02EB97
S315020053B88E01596152F82E10013142F82E10DAF890
S315020053C800E0D96ADEF82C3099422B6888BFC8F803
S315020053D800C0002BA6D1294B1A681268002A33D0BE
S315020053E81A68274BD26812681A60264E356895B134
S315020053F8012706E0FFF740FD08B1C8F80070013D35
S3150200540808D02368002BF5D03368013D03F1010368
S315020054183360F6D13560D8F800307BB14FF0805250
S31502005428194B1A4909685A60BFF34F8FBFF36F8F3A
S315020054380124FCF717FF2046BDE8F0870024FCF795
S3150200544811FF2046BDE8F0874FF0FF320C4B1A6079
S31502005458CBE7DFF84880C8E740F68B710C4B0D4A5C
S315020054680D48FEF771FD00BF40B1002268B1002267
S3150200547898B1002260B10022DCB10022B0B100224C
S3150200548848B1002258B1002200ED00E054B20022D1
S3150200549884B2000250BA000260B1000254B100227E
S315020054A810B500283AD0002931D0204B1A680132AB
S315020054B81A601F4A14681B68012B21D10268531807
S315020054C82CBF01210021A24215D809B99C4214D247
S315020054D803600021181BFFF741FC0124FFF700FFB8
S315020054E838B94FF08052134B5A60BFF34F8FBFF350
