S0150000626D735F74656C656D657472792E7372656393
S31502000000E0040022112A0002D52800020D2A00026D
S315020000100D2A00020D2A00020D2A00020D2A0002F4
S315020000200000000000000000000000005D0A00025F
S315020000300D2A000200000000750A0002DD0A000215
S3150200004031160002C5170002E9180002CD19000296
S3150200005009220002912300026924000209220002F9
S31502000060DD220002B110000221100002411100023D
S309020000708D110002E4
S315020000740000000000000000000000000000C8426A
S315020000840000C8420000000000000000000000005A
S31502000094000000000000C8421450000200000000E4
S315020000A401000000000000000018000064000022A5
S315020000B401000000480000220300000001000000C5
S315020000C4037300000273000000000000020C00002B
S315020000D40060600002000000160000000700000035
S315020000E401000000020000002C0000000F000000C6
S315020000F404000000104000008C00002200000000F2
S31502000104A42700220C2800227428002200000000E2
S3150200011400000000000000000000000000000000D3
S3150200012400000000000000000000000000000000C3
S3150200013400000000000000000000000000000000B3
S30D020001440000000000000000AB
S315020001500348044B834202D0034B03B1184770474E
S31502000160D8000022D800002200000000064B0749F2
S31502000170C91A891048BF0131491003D0044B0BB18B
S3150200018001481847704700BFD8000022D800002255
S315020001900000000010B5064C237843B9FFF7D8FFDC
S315020001A0044B13B10448AFF300800123237010BD42
S315020001B0100500220000000084A2000308B5054BCA
S315020001C01BB105490548AFF30080BDE80840FFF7BB
S315020001D0CDBF00BF000000001405002284A2000368
S315020001E070B50C4694B006464822002102A804F0D7
S315020001F09DFA4FF0000C4FF0080E206861680D4D15
S3150200020004AB03C301AA61460B4801968DF80AE0C6
S3150200021085F800C001F0D4FD50B9642404E0012041
S3150200022003F098FD013C02D02B78002BF7D02B78F7
S3150200023014B070BD78050022D41E002208B583884A
S31502000240B3F5006F0DD0082B02D0B3F5807F0BD12A
S31502000250064801F03DFDBDE808400549034801F0A6
S3150200026033BE0122034B1A7008BD00BFD41E002202
S3150200027080560002780500222DE9F04F2DED0E8BF7
S31502000280C24989B0C24801F01FFE03F08DFD9FED01
S31502000290C1BA9FEDC1CA9FEDC1DADFEDC1BADFED8A
S315020002A0C1CADFF804A3DFF80493B94F05903846B4
S315020002B001F00EFDB549384601F006FE0A21DAF8CC
S315020002C0000003F01DF8012840F016810023D9ED45
S315020002D000DA99F823401946621C89F82320DAF8D5
S315020002E000001A4699ED019AD9ED028A99ED03EAC0
S315020002F0D9ED04AAD9ED059A99ED06AA99ED078AD0
S3150200030099F8208099F8215099F8226002F022FE8D
S315020003106DEE8B7AF5EEC07AF1EE10FA00F10781F6
S31502000320F4EEEB7AF1EE10FA00F31C81FCEEE77ABA
S3150200033017EE903AC3F3072BDBB269EE0B7AF4EEB3
S31502000340CC7AF1EE10FA00F3FC80F4EEEC7AF1EEE0
S3150200035010FA00F11581FDEEE77A17EE902AC2F344
S31502000360072ED2B2019268EE8B7AF4EECC7AF1EED7
S3150200037010FA00F3F280F4EEEC7AF1EE10FA00F1E4
S31502000380FA80FDEEE77A17EE902AC2F30721D2B27F
S3150200039002910392F2EE047A6EEE277AF4EECD7AA9
S315020003A0F1EE10FADBBFFCEEE77ACDED007AFF2222
S315020003B09DF800204FF480700092002294466BF361
S315020003C0070263F30F22019B6EF3174263F31F6268
S315020003D0029B06A963F3070C039B069263F30F2C99
S315020003E0009B63F3174C64F31F6C0024CDF81CC00A
S315020003F0FFF7F6FE40F2011006A9CDF81B408DF874
S315020004001F408DF818808DF819608DF81A50FFF785
S31502000410E7FEF2EE047A6AEEA77AF5EEC07AF1EE1C
S3150200042010FA07947AD4F4EEEB7AF1EE10FA74DC51
S31502000430FCEEE77AF5EEC09A17EE903AF1EE10FA74
S31502000440C3F30726DCB26FD4F4EEEB9AF1EE10FAA0
S3150200045000F38E80FCEEE97A17EE903AC3F3072595
S31502000460DBB2002266F3070264F30F2265F317423A
S3150200047063F31F624FF4817006A90692FFF7B0FE7E
S315020004806AEE0B7AF5EEC07A0024F1EE10FA0794C2
S3150200049038D4F4EEEB7AF1EE10FA32DCFCEEE77ABF
S315020004A017EE903A68EE0B7AF5EEC07AF1EE10FA94
S315020004B0C3F30726DCB22DD4F4EEEB7AF1EE10FA92
S315020004C053DCFCEEE77A17EE903AC3F30725DBB26C
S315020004D0002266F3070264F30F2265F3174206A9A8
S315020004E063F31F6240F203100692FFF779FE64215E
S315020004F005A803F0D9FBDAE6642105A803F0D4FBCC
S31502000500D5E6FF2468EE0B7AF5EEC07AF1EE10FA24
S315020005102646D1D500231D46DAE7FF24F5EEC09A1A
S31502000520F1EE10FA26468FD500231D4699E769EEAD
S315020005300B7AF4EECC7A0023F1EE10FA9B467FF7A3
S3150200054004AF68EE8B7AF4EECC7AFF22F1EE10FA63
S315020005504FF07F0E01927FF70EAF7F22FF20CDE98B
S31502000560022017E7FF239B46E7E6FF231D46AFE778
S31502000570FF231D4675E780220121CDE9022109E705
S3150200058001224FF0800E0192EDE600BF8056000276
S31502000590D41E002200007A4400FEFF4600007F437C
S315020005A000FF7F4700FEFFC62C0500220000002246
S315020005B0022800D070470249024800F0F5BE00BF8B
S315020005C0D0560002CC1E00220379022B02D1012250
S315020005D0014B1A70704700BFC81E002200BE70474A
S315020005E080B5012048498AB002F080FD474D286057
S315020005F0002870D00026464C4649474800F0CEFBFC
S315020006000FCC2768454C267005AE0FC6112242480C
S3150200061005A9378000F048FB23782BB9012003F0A7
S3150200062099FB2378002BF9D003243D483D4900234A
S31502000630CDE901104FF400723B4900943B4803F0A8
S31502000640EDF802270646DFF814E1DFF814C1384C4C
S31502000650CDE901CE0097002326604FF4007235499A
S31502000660354803F0DBF801270646DFF8F8E0DFF845
S31502000670F8C0324C00970023CDE901CE4FF4007248
S3150200068026602F492F4803F0C9F89FED17AB9FED5F
S3150200069018BB9FED198B9FED1A9B4FF001072A4B52
S315020006A02A4C186004F110060A21286802F028FE76
S315020006B001280CD1002328681A46194684ED00BF8A
S315020006C086ED009F278484F8223002F043FC6420E2
S315020006D003F040FBE8E732211D4B1E4A1E4802F09A
S315020006E0ABF800BFAFF300809A9949410000C03FC2
S315020006F0333397410000AA420000C4420000C842B8
S315020007000000A04000002041300500222C050022F6
S315020007107050000298560002F01E0022C81E0022E7
S315020007205C160022C81600225C5000026D07000209
S31502000730581600226450000279020002E80D0022D7
S3150200074068500002250800027C05002200000022F3
S31502000750245000026C56000240500002EC0D0022AA
S31502000760580E002280050022E80500222DE9F047F6
S315020007702DED028B82B003F017FBDFED238A9FED8E
S31502000780238A4FF00009DFF89880214F214D224E2F
S31502000790224C01902BE0F5EEC07AF1EE10FA01D56B
S315020007A007EE909A0A213068C5ED007A02F0A8FD9C
S315020007B0012818D100234FF07F5A4FF0020E4FF056
S315020007C0040CD5ED007A1A4619463068C4ED037A50
S315020007D0C4F80080A760C4F804A084F822E084F874
S315020007E020C002F0B7FB642101A803F05DFAD5ED43
S315020007F0007A77EEE87AF4EEC87AF1EE10FACADDFC
S31502000800F0EE487ACEE700BF6352BC3A0000C84217
S3150200081034339741240000222C05002200000022D6
S315020008209A9949412DE98048ABB003F0BDFA2E4EA4
S315020008302E4D2F4CDFF8C0802E4F11900A213068C2
S3150200084002F05EFD01284AD10023D5ED018AD5EDDD
S31502000850039AD5ED05AA95ED008A95ED029A95EDD6
S3150200086004AA1A461946306895F8209095F822A0EF
S3150200087095F823B002F06EFBB7EEEA2AB7EEE94A24
S31502000880B7EEE86AB7EECAAAB7EEC99AB7EEC88A51
S31502000890602142468DED0A2B8DED064B8DED026BE6
S315020008A08DED08AB8DED049B8DED008BCDE90DAB87
S315020008B012A8CDF8309003F005FF002312A823708A
S315020008C003F051FF12A90246384600F0EDF92378EB
S315020008D02BB9012003F03EFA2378002BF9D0FA2136
S315020008E011A803F0E1F9A9E72C0500220000002275
S315020008F0C81E0022F01E002284500002704700BF6C
S31502000900FFF7FCBF00BE704738B5164C4FF0FF31FB
S31502000910206802F0F5FC012803D000212068FFF7C9
S31502000920F1FF114B1A7802B138BD01221A70FFF796
S31502000930E7FF0E4D2B68013B2B60002BF4D0002302
S3150200094020681A46194602F005FB0128F2D000215A
S315020009502068FFF7D7FF2B68013B2B60002BEED1F7
S3150200096038BD00BF382400223C2400224024002245
S3150200097038B500230B4D0C4C01214FF480700B4A05
S315020009802B60237002F0AAFA094B186028B100F016
S3150200099037F803F053F8002038BD0146FFF7B2FFDF
S315020009A0F5E700BF402400223C240022F023002267
S315020009B038240022802330B4034D044C05600C60B9
S315020009C0136030BC704700BF8823002288210022B2
S315020009D0802330B4034D044C05600C60136030BCB8
S315020009E0704700BF20210022201F002210B50446B6
S315020009F0FFF78AFF2046BDE81040FFF7F1BD00BFB2
S31502000A0070B501250D4C0E4923680E4E84B0581957
S31502000A10CDE901160C4B20604FF480620B490C485D
S31502000A20009502F0FBFE0B4B186008B104B070BDD6
S31502000A30014604B0BDE87040FFF764BF40240022BF
S31502000A40F028002248240022CC560002B0500002B0
S31502000A50ED0900024424002200BEFEE71EF0040F48
S31502000A600CBFEFF30880EFF3098001490847000045
S31502000A70010B00020F4B1968EFF309821EF0100FEB
S31502000A8008BF22ED108A22E9F04FEFF30B8342F8FA
S31502000A90043D0A604FF0100080F31188BFF34F8FB8
S31502000AA0BFF36F8F03F096F94FF0000080F31188C1
S31502000AB000F002B8A0260022074801680A6802CAA6
S31502000AC081F30B88B2E8F04F1EF0100F08BFB2ECAC
S31502000AD0108A82F309887047A026002210B5EFF328
S31502000AE01184102383F3118803F064F918B14FF0CF
S31502000AF08052024B5A6084F3118810BD00ED00E06B
S31502000B0008B5836913F8023C022B02D0032B04D8E2
S31502000B1008BDBDE80840FFF7CFBF4FF47E71024B18
S31502000B20024A034801F088FEBC5000024C590002FA
S31502000B30D050000270B44FF080756FF00204074E79
S31502000B40283122F0010240E9022540E9094340F832
S31502000B500C6C40F8481D70BC704700BF590A000271
S31502000B6008B5EFF31181102383F311880A4A13683B
S31502000B700133012B136000D008BD084A084B1160EF
S31502000B805B68C3F30803002BF6D040F2A441054B81
S31502000B90054A064801F050FEB4240022B024002281
S31502000BA000ED00E0F850000238590002D050000271
S31502000BB008B5094A13683BB1013B13601BB9074BE1
S31502000BC01B6883F3118808BD40F2AD41044B054A08
S31502000BD0054801F031FE00BFB4240022B0240022F1
S31502000BE04051000224590002D050000238B572B6B4
S31502000BF00B4D02F071FF0B4C6B68234206D10121AB
S31502000C00084601F023FE6B682342F8D062B6BFF3B2
S31502000C106F8F72B662B6BDE8384002F065BF00BF9C
S31502000C2000ED00E000F01F000D4B0E4A1B68A2FB10
S31502000C3003239B09013BB3F1807F00D370474FF03A
S31502000C40E0224FF0F00C0020072110B4064C53614D
S31502000C5084F823C0906111615DF8044B704700BFB0
S31502000C6048250022D34D621000ED00E0F02208B5BF
S31502000C700B4B83F82220FFF7D7FF0A4A536B43F048
S31502000C804043536362B6BFF36F8FEFF3148C2CF0BD
S31502000C90040C8CF31488BFF36F8F02DF00BEFDE7EE
S31502000CA000ED00E000EF00E0844610B4006A8368BD
S31502000CB023F440138360DCF82040A36C5800FCD573
S31502000CC0A36823F01003A360DCF82040237FC3F35C
S31502000CD00010DB06FAD4CCE90312A36843F0101322
S31502000CE0A3605DF8044B704730B40124164D5309D6
S31502000CF002F01F0C203304FA0CF445F82340BFF32C
S31502000D004F8FBFF36F8F114B02F5C65C53F82C4021
S31502000D1024F4803443F82C4053F82C300901002A7D
S31502000D20C9B207DB0A4B154485F8001343F82200C3
S31502000D3030BC7047074B02F00F0423441976044B6C
S31502000D4043F8220030BC704700E100E0006000403A
S31502000D5008250022FCEC00E0F0B5846A85B0054661
S31502000D600F4694466E46B4B194E80F0086E80F002B
S31502000D70EB6920461B78A760236084F804C0EB6AFF
S31502000D80E3606B6A9847AC6A1CB196E80F0084E888
S31502000D900F0005B0F0BD3446EAE700BF00222DE998
S31502000DA0F04101270B78027003F5800303F55653D1
S31502000DB01B020362C1614B690D4643628B6904469D
S31502000DC0C0E90A238378CE6967F3010383704B78FF
S31502000DD0934214BF3A460222837862F30103837078
S31502000DE091F90B20897AFFF77FFF95F9052029797A
S31502000DF0FFF77AFF95F90720A979FFF775FF95F9AD
S31502000E000920297AFFF770FFEFF3108887F310881D
S31502000E104FF000412A787A4BD1405A6822EA010201
S31502000E205A605B689620394601F010FD88F31088F7
S31502000E304FF48062236A9A606B78E978EA691B024A
S31502000E40890301F4804103F440730B43117850681F
S31502000E50090601F040710B435178C90389B20B436D
S31502000E60517B490501F400110B43216A43F4805377
S31502000E704B611378991EB94240F2BB800368216A1E
S31502000E800B61117BAB7801F0030141F0300133B104
S31502000E90022B14BF4FF440734FF4807319430020A2
S31502000EA093781B0703F080530B43216ACB60216AB8
S31502000EB00123886140F21F21287883400B4202D029
S31502000EC0236A504959620021937BD07B127C00F041
S31502000ED01F0003F0010343EA002302F01F02206A07
S31502000EE043EA02430363C4E90311C4E90511226A12
S31502000EF07589454825819066E269444B92F9052039
S31502000F0002F5C65053F8205061F3104543F82050BD
S31502000F1053F82000BFF35F8F012002F01F0552092C
S31502000F20920002F1604202F5614200FA05F5C2F84A
S31502000F3080511560E26992F90B2002F5C65553F805
S31502000F40256061F3104643F8256053F82550BFF338
S31502000F505F8F02F01F055209920002F1604200FA09
S31502000F6005F502F56142C2F880511560E26992F90F
S31502000F70072002F5C65553F8256061F3104643F87B
S31502000F80256053F82550BFF35F8F02F01F05520903
S31502000F90920002F1604200FA05F502F56142C2F8DA
S31502000FA080511560E26992F9092002F5C65553F897
S31502000FB0256061F3104643F8256053F82530BFF3E8
S31502000FC05F8F53099B0002F01F0203F160439040BA
S31502000FD003F56143C3F8800118600D4A236A9A60DB
S31502000FE0226A137FDB07FCD50A4B00206360BDE84B
S31502000FF0F0810949022B094B18BF0B463FE700BF98
S315020010000030204000001F1F1000079D00600040B6
S31502001010110401004249435304FF00FF24FF00FF6D
S31502001020EFF30383103B204A5BB203F5C65152F835
S31502001030210020F4803042F8210052F821201B4A78
S3150200104052F82300C3691B6983B1036903B1704770
S31502001050026A0021936823F4801343F40013936019
S31502001060436AC160C3B18022FFF776BE0369026A92
S31502001070002BEED08378C16803F00303022B0CD059
S315020010800B7813718278D0E9031302F003029B1ADC
S315020010901144C0E90313D9E770470B8823F4DC43F4
S315020010A09BB25360EEE700BF0060004008250022B5
S315020010B010B582B0EFF30383103B1F4A5BB203F510
S315020010C0C65152F8210020F4803042F8210052F82D
S315020010D021201A4A52F82340A27802F00303022B77
S315020010E0236A0CBF19681978A3690CBFC1F30801FA
S315020010F0C9B2019143B9636AB3B10422204602B070
S31502001100BDE81040FFF728BE02F0030201A960699C
S3150200111003F01CFBD4E90521A37803F003031A4468
S31502001120C91AC4E9052109B102B010BD636A002BD0
S31502001130FAD00122E2E700BF006000400825002243
S3150200114010B5EFF303830F4A103B5CB252F824004A
S31502001150026A936823F4401323F010039360436AF0
S315020011601BB102220021FFF7F7FD074A04F5C65319
S3150200117052F8231021F4803142F8231052F823301A
S3150200118010BD00BF082500220060004038B5EFF30D
S3150200119003831D4A103B5CB252F824008378056A29
S315020011A003F00303022B0CBF29682978AA6C08BF37
S315020011B0C1F30801C2F30073C2F3006C4FEA0313D2
S315020011C043EA4C13C2F3C06243EAC20C18BFC9B267
S315020011D0DB06624604D5AB6C1B0458BF4CF04002DA
S315020011E0AB6E43F0C853AB66436A0BB1FFF7B4FD6F
S315020011F0064A04F5C65352F8231021F4803142F808
S31502001200231052F8233038BD082500220060004022
S315020012102DE9F84F0388DBB14FF0000A80464FF004
S315020012200109DFF8D4B00024314D4FEACA07D8F8D5
S31502001230043035F8022BD919898891420AD0013433
S31502001240032CF4D1B8F800300AF1010A5345EAD862
S31502001250BDE8F88FDB5909FA04F603F0B853B3F187
S31502001260807F244BF6B293F84C2C12D0324230D106
S3150200127004F120021BF81230DB09E0D01BF8123011
S31502001280012123F08003C8200BF8123001F0DEFAA8
S31502001290D5E7324210D004F120021BF81230DB09E6
S315020012A0CDD11BF81230012143F08003C8200BF880
S315020012B0123001F0CBFAC2E7012001F073FB0D4BAD
S315020012C0012093F84C2C324383F84C2C01F03AFB64
S315020012D0E1E7012001F066FB064B012093F84C2C56
S315020012E022EA060283F84C2C01F02CFBC0E700BF71
S315020012F06059000200E0014000202040F8B5064691
S31502001300FFF786FFEFF31082012383F31088234F42
S315020013103B681BB9402022490B7508753B680133AF
S315020013203B6082F31088338800211BB31D4D08E011
S315020013301B01134445F82340328801318BB29A428D
S3150200134018D9736853F8314003EBC1029288E0035F
S315020013504FEA1223D2B2EBD502EB031055F820E086
S3150200136024F4803C2EF4803E45F820E01B0145F82B
S3150200137020C0DEE7EFF31082012383F310883B6877
S3150200138013B13B68013B3B603B681BB980200449B3
S315020013900B75087582F31088F8BD00BF0025002280
S315020013A0000D40400008404008B5034B0360084664
S315020013B0FFF7A4FF002008BD54524F5030B5836B8F
S315020013C083B004460A466D46A3B193E8030085E856
S315020013D00300E16B1A7119601846636B9847A36B99
S315020013E01BB195E8030083E80300002384F82B3041
S315020013F003B030BD2B46ECE770B4002440220369EB
S315020014001C7003691A70026913785B06FCD5C02347
S315020014101370036802695B6A804D1B794FF0000CFA
S3150200142043F0E0031374036802695B6AB324DB7852
S3150200143043F0E0035374036802695B6A9B781B01FD
S3150200144003F0700343F008039370036802695B6A52
S315020014501E78012E5E7814BF0423052343EA460351
S31502001460DBB2D37003685B68AB4214BF7722F72204
S3150200147003695A71036983F806C00369DC7191F93D
S3150200148011204B7B6245C0F2AA801B0102F1604427
S31502001490DBB204F5614484F80033614C614B44F8D5
S315020014A0220002F5C65553F8256026F4803643F825
S315020014B0256053F82530BFF35F8F012553099B0042
S315020014C002F01F0203F1604303F5614305FA02F2DB
S315020014D0C3F880211A6091F90F204B7B002AC0F2D3
S315020014E095801B0102F16045DBB205F5614585F881
S315020014F000334C4B44F8220002F5C65553F82560DA
S3150200150026F4803643F8256053F82530BFF35F8F03
S31502001510012553099B0002F01F0203F1604303F504
S31502001520614305FA02F2C3F880211A6091F910208C
S315020015304B7B002A63DB1B0102F16045DBB205F53A
S31502001540614585F80033374B44F8220002F5C6554B
S3150200155053F8256026F4803643F8256053F8253083
S31502001560BFF35F8F012553099B0002F01F0203F1AF
S31502001570604303F5614305FA02F2C3F880211A605B
S3150200158091F90E204B7B002A31DB1B0102F16041EF
S31502001590DBB201F5614181F80033224B44F82200A7
S315020015A002F5C65153F8214024F4803443F8214011
S315020015B053F82130BFF35F8F012153099B0002F0DC
S315020015C01F0203F1604303F5614301FA02F2C3F815
S315020015D080211A609F2203691A7070BC7047124CF0
S315020015E002F00F051B01DBB22C44237655E70E49A8
S315020015F002F00F051B01DBB229440B76CDE70B4D3A
S315020016001B0102F00F06DBB2AB559CE7074D1B012F
S3150200161002F00F06DBB2AB556BE700BF40420F008C
S315020016200825002200600040FCEC00E014ED00E01A
S3150200163010B582B0EFF30383103B5F4A5BB203F54A
S31502001640C65352F8231021F4803142F8231052F87F
S315020016502330EFF30383594A103B5BB252F823401F
S3150200166094F82D305BBBA369022B22D9E369012BC7
S315020016700ED12269137943F010031371226913798B
S3150200168043F0080313712269137923F010031371CF
S3150200169023685B6ADB79002B3ED101222369DB7C5E
S315020016A0DBB28DF807309DF8073084F82D2002B0A2
S315020016B010BD2269137943F040031371D6E7E3693B
S315020016C0002BF4D02268526AD279FAB9032B17D0CA
S315020016D0022B26D0012B34D02269236AD17C62697F
S315020016E0D154D4E907320132013BC4E90732002B57
S315020016F0DDD121690A7963F386120A7102B010BD3F
S315020017002269137943F040031371E5E70521204668
S31502001710FFF754FEE369D9E705212046FFF74EFE9F
S31502001720BBE72269137943F0100313712269137917
S3150200173043F0080313712269137923F0100313711E
S31502001740CAE794F82A2072B322681D4892F90F203C
S31502001750510902F01F0203FA02F2203140F8212059
S31502001760BFF34F8FBFF36F8F04202169CA7942F00E
S315020017708002CA7121690A7942F010020A7121694E
S315020017800A7922F008020A7121690A7922F0100206
S315020017900A712269507021694A7922F001024A715E
S315020017A084F82C3098E708212269537A03F0F7036C
S315020017B05372236959708FE70060004008250022A2
S315020017C000E100E010B5EFF30383103B434A5BB23E
S315020017D003F5C65352F8231021F4803142F8231040
S315020017E052F82330EFF303833D4A103B5BB252F8C3
S315020017F0234094F82730002B40D194F82930002B4F
S315020018003BD123685B6ADB792BB194F82B3013B991
S31502001810236A002B5CD1E3692169002B41D1CB7984
S31502001820C02223F08003CB71216901E0013A02D084
S31502001830CB79DB09FAD12368284A93F9103003F5EC
S31502001840C65352F8231021F4803142F8231052F87D
S315020018502330236893F91030002B09DB01215A0942
S31502001860204803F01F03603201FA03F340F82230E6
S315020018702269D37943F04003D37110BD94F8263020
S31502001880032B1CD094F8242023699A7494F82820F8
S3150200189094F827300132013B84F8282084F8273057
S315020018A010BD236A6269D35C8B74D4E907320132B4
S315020018B0013BC4E90732002BDFD12169AFE794F877
S315020018C02830022BDED194F83030002BDAD110BD4D
S315020018D005212046FFF772FD9DE700BF006000402C
S315020018E00825002200E100E038B5EFF30383344A0D
S315020018F0103B5BB252F8234023685B6ADB79002B0C
S315020019004BD194F829301BB194F82730012B52D0D1
S31502001910E369E3B12169C023CA7922F04002CA71A0
S31502001920216901E0013B02D0CA795206FAD4EFF3EB
S315020019300383103B234A5BB203F5C65352F82310C6
S3150200194021F4803142F8231052F8233038BD94F83E
S315020019502A203AB3012022681B4D92F90F20510921
S3150200196002F01F02203100FA02F245F82120BFF3ED
S315020019704F8FBFF36F8F4FF0040C2169CA7942F083
S315020019808002CA71226982F801C021694A7963F329
S3150200199000024A7184F82C00BCE705212046FFF7B5
S315020019A00DFDAEE708212269537A03F0F70353725D
S315020019B023695970AEE794F83030002BAAD0A7E716
S315020019C0082500220060004000E100E038B5EFF390
S315020019D003834C4A103B5BB252F823000269537AE6
S315020019E0517ADC0601F0E00151725FFA83FC03F0E2
S315020019F003022CD503695978490648D400240125E7
S31502001A0080F82B50DC710168FFF7F6FCB32290F8E0
S31502001A102630816980F82830036980F82C400162FB
S31502001A20C46180F82A402946DA71FFF7C7FCEFF352
S31502001A300383103B344A5BB203F5C65352F82310B4
S31502001A4021F4803142F8231052F8233038BD002A9F
S31502001A5056D11CF0080F0ED090F82B30002B3ED139
S31502001A60B32290F829100369C1F10301C9B2DA71F0
S31502001A70FFF7A4FCDBE790F82C200CF004032AB352
S31502001A80002BD4D090F82B30002B37D1E8E7002A70
S31502001A90B4D15A78C2F380115206DAD5082280F8F8
S31502001AA02B105A70036801695A6A9479137852792D
S31502001AB043EAC41343EA021343F00203DBB2CB70D8
S31502001AC00269537943F001035371B0E7002BAED09C
S31502001AD003685B6ADB79002BA9D00421C8E70023DF
S31502001AE0B32190F826508469026980F82C3080F878
S31502001AF028500462C36180F82A30D1710121B7E708
S31502001B0003697BE708250022006000401F2910B503
S31502001B103FD84C2401F0070E04FB0EFECB080EEB59
S31502001B20832E0EF5126E8644DEF80030C3F38074FF
S31502001B305471DEF8084004F00704946023F0604410
S31502001B40DB0F14601371DEF804301A4C1B0FE45CD1
S31502001B500EF10C03947164B10C34A644AEEB030E81
S31502001B604EF001E00B3213F801CB02F801CF0FF071
S31502001B7007C01F2904D801238B40DB43436310BDF2
S31502001B8027294FF0FF030FD9123900EB81014B6071
S31502001B9010BD4FF04C0E0EFB010E27298CBFAEF581
S31502001BA0C56EAEF58C6EBFE70E3900EB8100436061
S31502001BB010BD00BF6859000270B5456904460E465D
S31502001BC098B0A5B160222946684602F0BFFD6022A0
S31502001BD03146284602F0BAFD2846236998476069CD
S31502001BE018B16022694602F0B1FD18B070BD0D460B
S31502001BF0F2E700BF10B40C06026801F00F0C37D4EE
S31502001C005468630725D4E30702D4BCF1050F22D03A
S31502001C10536823F0070343EA0C035360936803F007
S31502001C2007039C45FAD1A40703680BD0CA0709D457
S31502001C304268596D1269D269926902F001020A4339
S31502001C405A6503685B685DF8044B03F00703037388
S31502001C507047CB07D7D4536823F0070343F0010339
S31502001C605360936803F00703012BFAD10268CFE7AA
S31502001C70946914F0010401D1CB0719D4936923F0B6
S31502001C80070343EA0C039361D36903F007039C45F8
S31502001C90FAD10368002CD5D0CA07D3D44268126998
S31502001CA0D2699168D9630368D2681A640368C9E77E
S31502001CB0D36B23F00103D3630268136C23F0010391
S31502001CC013640268536D23F0010353650268D5E776
S31502001CD0002370B54468836094F91530002B0DDB40
S31502001CE00121344D5A0903F01F03203201FA03F38E
S31502001CF045F82230BFF34F8FBFF36F8F94F9173039
S31502001D00002B0DDB01212B4D5A0903F01F03203254
S31502001D1001FA03F345F82230BFF34F8FBFF36F8FFB
S31502001D2094F91630002B0DDB0121224D5A0903F0DE
S31502001D301F03203201FA03F345F82230BFF34F8F17
S31502001D40BFF36F8F23681C4DB3FA83F35B0955F813
S31502001D502330F3B18121FFF74DFF8521FFF74AFFBB
S31502001D60EFF31086012181F31088144A23689068E4
S31502001D70C3F11B0301FA03F30343936093689620AE
S31502001D8000F064FD86F310880020236845F82300DE
S31502001D9070BD8022074BC3F88020BFF34F8FBFF37D
S31502001DA06F8F4FF48072C3F88020BFF34F8FBFF35B
S31502001DB06F8FCFE700E100E0B82400220030204018
S31502001DC070B5137955791468DB0743EA85732729B9
S31502001DD0056843EA04033AD86C1894F87440240759
S31502001DE062D44C2404FB0155C5F804369479082CB8
S31502001DF003D9182C5BD924090B344C2301FB03F3BA
S31502001E00056826071D44C5F808669668056806F043
S31502001E1007061D44C5F80C66957902F10C0C02689A
S31502001E2003F5C2630C461344002D4AD045F001E087
S31502001E301CF8012B03F8012B0FF007C027290368B2
S31502001E402CD80122234483F87020002070BD4C2632
S31502001E50A1F1280406FB0455C5F8B8359379082B79
S31502001E6003D9182B28D91B090B331D074C2304FB56
S31502001E7003F3066802F10C0C1E44C6F8BC559668BC
S31502001E80056806F007061D44C5F8C065957902681F
S31502001E9003F2C4531344002DC8D11346FF2216344D
S31502001EA003EB84035A60D0E74EF6632070BD083C0C
S31502001EB0A4080834E4B2A0E7083B9B080833DBB267
S31502001EC0D3E71346BDE700BF00222DE9F04FD1F854
S31502001ED000900E6909F5003505F5E0756D03C0E958
S31502001EE000518B6883B00361CB688A46C0E905233B
S31502001EF08046F769EFF31084012181F31088B94B0C
S31502001F00C9F11B009A6801FA00F022EA00029A60FF
S31502001F109B68962000F09AFC84F31088EC6914F012
S31502001F200804FBD140468121FFF764FE4FF480305E
S31502001F307A68AD4B6A61E862C5F8B0403A69AB4867
S31502001F402A63BA68AA49EA63FA682A647A7D04624D
S31502001F501201D2B283F80823D1F8202364F3104287
S31502001F60C1F82023D1F82023BFF35F8F4FF480708E
S31502001F70C3F8800118603A68AA61BA6922F00102C0
S31502001F806A65B9F1000F00F00E819A4BB9F1010FA3
S31502001F9043F8298040F002814FF0100E964B98626A
S31502001FA037684FEA0E1EAEF1100E4FEA1E1E0EF1F4
S31502001FB0010E4EF001E04FF4807B09F00109019613
S31502001FC004F11206C5F828B005EB061697E80F00CD
S31502001FD086E80F0005EB041CDCF82831103769F39C
S31502001FE0C7130134CCF828310FF017C000240121A1
S31502001FF04046AC62019EFFF7FDFDDAF804100B685D
S315020020004A68013B013AC3F3090343EA4243D1E971
S315020020100202411E43EA4163013A43EA82232B60EC
S3150200202071690B684A68013B013ADBB243EA022353
S31502002030D1E90202411E013A43EA014343EA02633D
S31502002040C5F8003173695A68337EFF2A28BFFF221A
S315020020505B0243EA024343F4806343F00103C5F89B
S315020020600431B368C5F88830336943F003036B6003
S315020020709AF91530A34227DB9AF8142003F160413E
S315020020801201D2B201F5614181F8002357495B4A38
S3150200209041F8238003F5C65152F8210064F310403B
S315020020A042F8210052F82120BFF35F8F01215A091D
S315020020B0920003F01F0302F1604202F5614201FA47
S315020020C003F3C2F8803113609AF91730002B27DB2D
S315020020D09AF8142003F160411201D2B201F561416E
S315020020E081F800234149454A41F8238003F5C65148
S315020020F052F8210020F4803042F8210052F82120C3
S31502002100BFF35F8F01215A09920003F01F0302F108
S31502002110604202F5614201FA03F3C2F880311360AC
S315020021209AF91630002B27DB9AF8142003F1604047
S315020021301201D2B200F5614080F800232B482F49E4
S3150200214003F5C65240F8238051F8220020F480306D
S3150200215041F8220051F82220BFF35F8F01215A096C
S31502002160920003F01F0302F1604202F5614201FA96
S3150200217003F3C2F88031136040468021FFF73AFD2F
S315020021800021FFF737FD4FF0000300201C4AA8F894
S315020021900C30C8F8082003B0BDE8F08FA8624FF0F3
S315020021A0010E3768FDE63A7D104F1201D2B2C7F82A
S315020021B01C8083F80723D1F81C2369F31042C1F867
S315020021C01C23D1F81C23BFF35F8F8022C3F8802122
S315020021D01A60084B4FF0010EC3F80080094B986253
S315020021E03768DEE60030204000E100E008250022E4
S315020021F000C00040B82400220020384000600040A1
S315020022004446435200003840F0B599B0EFF30383D9
S31502002210103B5BB2072B3FD100272D4D05F1080677
S3150200222055F8044BCCB160220021684602F07EFAD2
S315020022304FF48053ADF80430236869461B6A204682
S315020022401A0C1B0403EB0273029322689B031762A8
S3150200225013D4A3690493FFF7AFFCB542E0D1072478
S315020022601C4A04F5C65352F8231021F4803142F871
S31502002270231052F8233019B0F0BD23689B6E93FAEF
S31502002280A3F3B3FA83F30393226802EB83035A6C34
S3150200229022F004025A64DCE71C460F4B602200213E
S315020022A0684653F8245002F041FA4FF48073002234
S315020022B0ADF804302B686946DB6828469BB2029368
S315020022C02B68DA60AB690493FFF776FCC8E700BFB8
S315020022D0B824002200600040082500222DE9F047BC
S315020022E0294F98B0BA465AF8043BCBB1002674037C
S315020022F004F1804404F56014E56E95FAA5F51DB166
S31502002300B5FA85F5012D15DDE36E43B91F4AD2F8FC
S31502002310201363F31041C2F82013D2F8203336B9E2
S31502002320DAF800301BB101260AF1040ADFE718B019
S31502002330BDE8F0874FF001084FF48062236E08FA79
S3150200234005F805F1200913EA080FCDF80C90ADF84F
S31502002350042011D14946204605AA0096FFF7D6FB6E
S31502002360009B694657F8230083690493FFF724FC10
S31502002370236E13EA080FEDD004EB85056B6C23F090
S3150200238008036B64C0E700BFB824002200C0004007
S31502002390F0B599B0EFF30384314B103C64B253F8B5
S315020023A024707B68BA6919681D69009104923E68B7
S315020023B096F8A43033BB43E04FF400633A688032A8
S315020023C0ADF80430136893FAA3F31BB1B3FA83F39F
S315020023D0072B07DD536893FAA3F3002B3DD0B3FA1C
S315020023E083F320333968194491F8742022F00602E7
S315020023F081F87420694638460393FFF7DDFB96F8A9
S31502002400A430EBB196F8A430D907DAB2D4D41307C4
S3150200241011D5EA692823926912F4805F0CBF4FF442
S3150200242000524FF40062ADF8042039688A6D22F03A
S3150200243010028A65DEE73A684FF400738432BFE71A
S31502002440084B04F5C65453F8242022F4803243F88C
S31502002450242053F8243019B0F0BD4023C2E700BF50
S31502002460082500220060004070B598B0EFF303869D
S315020024704FF4806228231B49103E76B251F826405B
S3150200248061680968ADF80420039300912068036E21
S31502002490DA0510D4144D282105AAFFF737FB009B55
S315020024A0694655F8230083690493FFF785FB206884
S315020024B0036EDB05EFD5836D23F00803836523687E
S315020024C09B6D13F008030AD1084A06F5C65652F860
S315020024D0261063F3104142F8261052F8263018B03F
S315020024E070BD00BF08250022B8240022006000400B
S315020024F01E4A92F8263092F82420DBB202F00F022E
S31502002500A2F1080103292BD8DFE801F020160C02FC
S315020025101749184A51F82330A2FB03231B09164A0E
S31502002520136070471249134A51F82330A2FB032362
S31502002530114ADB08136070470D490E4A51F82330E1
S31502002540A2FB03230C4A9B08136070470849094AF9
S3150200255051F82330A2FB0323074A5B081360704736
S31502002560034951F82330D340D9E700BF00E00140C8
S31502002570E0040022ABAAAAAA48250022704700BF9F
S31502002580F8B54AF20350012379497A4AA1F8FA03C7
S31502002590938093889BB2002BFBD101244FF4004019
S315020025A09FED6F6B9FED707B734B7449C3E9071107
S315020025B05961148083ED007F1861FFF799FF0922A4
S315020025C006216B4B83F8501A83F8A22093F8002C4D
S315020025D022B993F8013C980700F0BA80644C94F84B
S315020025E0003C002B00F0A9800022614B83F8012CED
S315020025F083F8002C00235E4A82F8363082F83230A5
S3150200260092F83C301907FBD545F6017040F21111DC
S315020026100023574C1085A2F84C1082F82A3094F801
S315020026203C309B06FBD5042201250526514B544F0F
S315020026301A77276284F8245084F82660FFF758FF39
S315020026402946962000F002F9002384F824302762F6
S31502002650FFF74EFF2946962000F0F8F884F8266028
S31502002660FFF746FF4AF20152464B1A80BFF35F8FCD
S315020026701D72BFF35F8F4FF42541198084F83050E5
S3150200268084F8525084F8535094F87630384A43F01E
S31502002690400384F8763092F87630DB09FBD0C52306
S315020026A0042082F86E0082F8763092F8763030494D
S315020026B003F0BF0382F8763091F87630DB09FBD15E
S315020026C091F855302A4A43F0400381F8553092F882
S315020026D05530DB09FBD0C523022082F8540082F86C
S315020026E0553092F85530224903F0BF0382F855302F
S315020026F091F85530DB09FBD191F857301C4A43F06B
S31502002700400381F8573092F85730DB09FBD0C023DB
S31502002710022082F8560082F8573092F85730144950
S3150200272003F0BF0382F8573091F85730DB09FBD12B
S315020027304FF42543A1F8FA33F8BD0121C82084F8E5
S31502002740001C00F083F894F8003C012BFBD14BE708
S315020027504FF47A70FFF712FF4CE700BFAFF3008029
S31502002760006CDC0200127A0000800000002D3101AC
S3150200277000E0014000C10140E004002200389C1C38
S31502002780322312310020004038B50025284C0121A1
S31502002790C82084F8285000F059F884F8245094F898
S315020027A02430002BFBD194F82430214943F0020354
S315020027B084F8243091F82430C3F340009B07F9D4FF
S315020027C01B4A81F8220092F8223003F0FF00002B08
S315020027D0F9D192F84030164960F3C71382F84030B7
S315020027E091F84030DB09FBD191F84200104A63F3BD
S315020027F0C71081F8420092F84230DB09FBD192F809
S3150200280044000B4963F3C71082F8440091F8443040
S31502002810C3F3C014DB09F9D1012000F0C3F8054B5C
S31502002820012083F84C4CBDE8384000F08BB800BF5D
S315020028300020204000E0014000BEFEE7000000004C
S31502002840A0F101000028FBD1704700BF1E4B1F4AB2
S315020028501B6800FB01F1934213D302F1854202F594
S31502002860071203F5742302F6834203F23F23A2FB07
S3150200287003239B0CA3FB01314FF0FF30E1B1FFF7BD
S31502002880DFBF4FF47A7210B4114C4FF0FF30B4FB35
S31502002890F3F3A1FB02C434B9BCFBF3F080B15DF8DB
S315020028A0044BFFF7CDBFB1FBF3F1A1FB0212002AE5
S315020028B0F5D1084620B1F2E71846002BDFD1704762
S315020028C05DF8044B704700BF4825002200127A00CB
S315020028D000CA9A3B70B500240D4B0E4EB3F8002188
S315020028E0B3F82051ADB2154025FA04F3DB0704D53F
S315020028F056F82430E0B203B198470134102CF3D1D4
S31502002900034AA2F81051B2F820311D42FBD170BD24
S3150200291000C00040C024002200220D2310B4074844
S31502002920074C30F8021B02F5C65C013209B144F8C5
S315020029302C10013BF5D15DF8044B70470859000293
S3150200294000600040EFF31081012383F31088124BDD
S3150200295033F8102092B22AB133F81020013A92B21B
S3150200296023F8102033F810309BB293B910B40B4AF7
S315020029700B4CB2F8FA3334F810009BB243F42543F9
S3150200298023EA0003A2F8FA3381F310885DF8044BB8
S31502002990704781F3108870473C25002200E0014011
S315020029A0F85A000230B4EFF31081012383F3108842
S315020029B00E4A32F810309BB26BB90D4C0D4DB4F87D
S315020029C0FA3335F810C09BB243EA0C0343F42543AD
S315020029D09BB2A4F8FA3332F8103001339BB222F8D4
S315020029E0103081F3108830BC704700BF3C250022AE
S315020029F000E00140F85A000208B501F09FFE0C22E1
S31502002A0003461A604FF0FF3008BD00BF00BE704794
S31502002A1008B500F035F8FDF7ABFFFEE7F8B5174F3E
S31502002A2005463E68A6B17C6806EB460604EB8606BA
S31502002A3002E00C34B4420BD0637AAB42F9D1D4E94A
S31502002A4000020021121A0C3401F070FEB442F3D1D6
S31502002A50BE6896B1FC6804EB061602E01034A64284
S31502002A600BD0637BAB42F9D1D4E90002A168121AFA
S31502002A70103401F06BFEA642F3D1F8BD785900027C
S31502002A805E4B5F4A70B55A61BFF34F8FBFF36F8FCC
S31502002A901B6803F47002B2F5801F00F0868013F4FF
S31502002AA0600F6ED0574A136843F004031360BFF3F6
S31502002AB04F8FBFF36F8F4FF47002534B4F4C002072
S31502002AC0C4F88820A360FDF773FDFFF759FD0120C6
S31502002AD0FDF76EFD4D4B83F30A884A4B1A6892073F
S31502002AE003D5A268B2F1007F63D00020FFF796FFFC
S31502002AF0FFF7FEFCFFF748FE0320FFF753FF002314
S31502002B004FF00C0E1C464EF001E0414903F10C0257
S31502002B1021F8224001330FF007C80320FFF712FF06
S31502002B200320FFF73FFF3B4B03205C609C60DC60A9
S31502002B301C61FFF707FF0220FDF73AFD0120FFF7B0
S31502002B406DFFBFF34F8FBFF36F8F2C4BC3F850420D
S31502002B50BFF34F8FBFF36F8F2F4B304D5B1B002B95
S31502002B604FEAA30606DD002455F8043B01349847D4
S31502002B70A642F9DCFFF7D0FEBDE87040002000F067
S31502002B804FB8204A136843F004031360BFF34F8F14
S31502002B90BFF36F8F4FF0E022936843F48033936064
S31502002BA0BFF34F8FBFF36F8F85E719077FF47AAFB5
S31502002BB075E7012100261A695869C2F3C30309336E
S31502002BC001FA03F3002400253246DB0843F005C070
S31502002BD0E2E802450FF005C0C0F3C303093301FA68
S31502002BE003F34FF00052DB0843F007C0AFF3008057
S31502002BF0E2E802450FF005C077E700BF00ED00E00E
S31502002C0001020E0000E001E000000002E0000022E6
S31502002C10000D404000402040A85D0002A45D000275
S31502002C20704700BF4FF0FF31002200F10803C0E9F0
S31502002C300131C0E903330260704700BF002303611C
S31502002C40704700BF30B40D686B1C10D000F108034A
S31502002C501C465B681A68AA42FAD94B6099608C6076
S31502002C6061600861036830BC013303607047046920
S31502002C706368F2E70369D0E901128A60416851602C
S31502002C805A68824204BF82685A600022026118684A
S31502002C9001381860704700BF70B51646026C0446CC
S31502002CA0856B2AB90668013510464EB3A56370BD19
S31502002CB08EB9406801F04AFD6368216CA2680B4434
S31502002CC09342636028BF236805F1010528BF63604C
S31502002CD0A563002070BDC06801F038FD226CE36870
S31502002CE021689B1A8B42E360C2F1000202D2A368FA
S31502002CF01344E360022E08D00135A563002070BD9F
S31502002D00A06801F041FAA660D0E7012D38BF01257F
S31502002D10DEE700BF70B50546FDF722FF95F84530A0
S31502002D205CB2002C14DD05F1240603E0631EDAB260
S31502002D305CB26AB16B6A5BB1304601F0F3F8002807
S31502002D40F4D001F0BDF9631EDAB25CB2002AF1D109
S31502002D50FF2385F84530FDF72BFFFDF701FF95F8B8
S31502002D6044305CB2002C14DD05F1100603E0631E4C
S31502002D70DAB25CB26AB12B695BB1304601F0D2F8C5
S31502002D800028F4D001F09CF9631EDAB25CB2002A84
S31502002D90F1D1FF2385F84430BDE87040FDF708BF46
S31502002DA070B5002848D0C56B0446002D3DD0026C94
S31502002DB0A2FB0525002D38D10E46FDF7D1FED4E93A
S31502002DC00F30FF2100FB03F32268181A62601344D6
S31502002DD00244A563C4E9023284F8441084F845101B
S31502002DE0BEB923691BB9FDF7E3FE012070BD04F1EC
S31502002DF0100001F097F80028F5D04FF08052124BE0
S31502002E005A60BFF34F8FBFF36F8FFDF7D1FE0120DC
S31502002E1070BD04F11000FFF705FF04F12400FFF76F
S31502002E2001FFFDF7C5FE012070BD4FF4B671074BD9
S31502002E30074A0848FFF700FD40F23711064B044ADD
S31502002E400448FFF7F9FC00BF00ED00E090510002D4
S31502002E50905B00025C5100028851000270B582B09C
S31502002E6023B30546D8B10E461C4682B1B9B14823F2
S31502002E700193019B482B20D101212046C4E90F561C
S31502002E802260019BFFF78CFF204602B070BD31B96C
S31502002E9048230193019B482B0FD12246ECE74FF4BE
S31502002EA0D871094B094A0A48FFF7C6FC4FF4C271AA
S31502002EB0084B064A0648FFF7BFFC4FF4CB71064B98
S31502002EC0024A0348FFF7B8FCE0510002745B0002B5
S31502002ED05C510002B4510002C451000230B583B005
S31502002EE0B8B1884203460D4613D31446FAB14822B6
S31502002EF00192019A482A13D10022E3630121204656
S31502002F0024602264019BFFF74BFF2046A56303B0B2
S31502002F1030BD4FF45E71094B094A0A48FFF78CFC33
S31502002F204FF4CB71084B094A0648FFF785FC4FF46C
S31502002F30C271074B054A0348FFF77EFCEC510002BB
S31502002F40505B00025C510002C4510002745B000235
S31502002F50B45100022DE9F04184B00192002800F03C
S31502002F60AF8004460F461E46002900F08B80022ED3
S31502002F7003D1E36B012B40F09C8001F0A7F80028F7
S31502002F8067D0FDF7EDFDA26BE36B9A4253D3022E97
S31502002F9051D00020DFF8448105460DE0FDF708FE1A
S31502002FA02046FFF7B7FE00F09FFDFDF7D9FDA26BA5
S31502002FB0E36B01209A423ED3019B002B6DD0B0B346
S31502002FC0FDF7F6FD00F088FDFDF7CAFD94F84430E2
S31502002FD0FF2B08BF84F8445094F84530FF2B08BFF6
S31502002FE084F84550FDF7E4FD02A801A901F020F896
S31502002FF0002858D1FDF7B4FDA26BE36B9A42CDD1FE
S31502003000FDF7D6FD019904F1100000F03BFF2046C2
S31502003010FFF780FE00F068FD0028C6D14FF080530E
S31502003020C8F80430BFF34F8FBFF36F8FBDE702A816
S3150200303000F0F2FFC4E7324639462046FFF72CFE7F
S31502003040636A83B9A8B9FDF7B3FD012004B0BDE8F0
S31502003050F081019B002B94D040F2BB311C4B1D4AE0
S315020030601D48FFF7E9FB04F1240000F05BFF00288E
S31502003070E9D04FF08052194B5A60BFF34F8FBFF31E
S315020030806F8FE0E7036C002B3FF471AF40F2B7316C
S31502003090134B104A1048FFF7CFFBFDF789FD0020BE
S315020030A004B0BDE8F0812046FFF734FE00F01CFDB7
S315020030B0F5E74FF46E710B4B064A0748FFF7BCFB68
S315020030C040F2B631084B034A0348FFF7B5FB00BF8F
S315020030D09C5200023C5B00025C51000200ED00E0E3
S315020030E0F45100024C5200028851000230B583B0FE
S315020030F0A1B348230193019B482B36D10025012316
S315020031000C46C1E90F350960019AFDF729FDD4E99C
S315020031100F31FF2001FB03F32268591A6260134440
S315020031200A44C4E90232A56384F8440084F84500DF
S3150200313004F11000FFF776FD04F12400FFF772FD9B
S31502003140FDF736FD2B462A4629462046A560256010
S31502003150E560FFF7FFFE204603B030BD4FF4C271B3
S31502003160054B064A0648FFF767FB4FF4CB71054B42
S31502003170024A0348FFF760FBB4510002745B000287
S315020031805C510002C4510002F0B585B001920028DC
S3150200319000F0A38004460E4600296ED000F096FF8A
S315020031A0002857D0FDF7DCFCA56B002D6FD1019BE3
S315020031B0002B35D002A800F02FFF2F46FDF7F8FCB2
S315020031C000F08AFCFDF7CCFC94F84430FF2B08BFD4
S315020031D084F8447094F84530FF2B08BF84F8457094
S315020031E0FDF7E6FC01A902A800F022FFE8B9FDF707
S315020031F0B7FCA36B33BBFDF7DBFC019904F124009A
S3150200320000F040FE2046FFF785FD00F06DFC58B346
S31502003210FDF7A6FCA56B002D39D1019B002BCDD164
S31502003220FDF7C6FC002005B0F0BD2046FFF772FD93
S3150200323000F05AFCFDF794FCA36B002BF0D0FDF7CF
S31502003240B7FCE5E7FDF7B4FC2046FFF763FD00F0A7
S315020032504BFCDDE7019B002BA4D040F2F251224B3E
S31502003260224A2348FFF7E8FA4FF08052214B5A6070
S31502003270BFF34F8FBFF36F8FCAE7036C002B8DD05E
S3150200328040F2ED511C4B194A1948FFF7D5FA226C48
S315020032905AB1D4E9023111449942E16028BF21684A
S315020032A0304628BFE16001F051FA2369013DA5636A
S315020032B023B9FDF77DFC012005B0F0BD04F1100035
S315020032C000F030FE0028F4D04FF08052094B5A60CD
S315020032D0BFF34F8FBFF36F8FEBE740F2E951074B16
S315020032E0024A0348FFF7A8FA9C5200022C5B00022E
S315020032F05C51000200ED00E07C53000270530002B4
S31502003300F0B585B00191002800F0BA80066C04463B
S31502003310002E40F0AE8000F0D9FE0546002855D0BA
S315020033203546FDF71DFCA36B0027002B41D1019BFF
S31502003330002B7FD0002D63D0FDF73AFC00F0CCFBCA
S31502003340FDF70EFC94F84430FF2B08BF84F8447056
S3150200335094F84530FF2B08BF84F84570FDF728FC2A
S3150200336001A902A800F064FE00283AD1FDF7F8FB95
S31502003370A36B002B4BD1FDF71BFC2368002B5CD003
S31502003380019904F1240000F07DFD2046FFF7C2FCFE
S3150200339000F0AAFB38B94FF080523D4B5A60BFF39A
S315020033A04F8FBFF36F8FFDF7DBFBA36B0125002B5E
S315020033B0BDD02268013BA363002A56D02369002BA5
S315020033C044D1FDF7F5FB012005B0F0BD019B064691
S315020033D0002BA6D040F28B612E4B2F4A2F48FFF7C7
S315020033E02BFA2046FFF796FC00F07EFBFDF7B8FBB2
S315020033F0A36B4BB9FDF7DCFB8EB9002005B0F0BD1F
S3150200340002A800F009FE97E7FDF7D2FBCBE7FDF72E
S31502003410CFFB2046FFF77EFC00F066FBC3E7FDF715
S315020034209FFB616A19B1236B1968C1F10501A06896
S3150200343000F000FFFDF7BCFBDFE7FDF791FBA0689C
S3150200344000F054FE0646FDF7B3FB99E704F11000BF
S3150200345000F068FD0028B4D04FF080520C4B5A6041
S31502003460BFF34F8FBFF36F8FABE700F043FFA06050
S31502003470A4E740F286610A4B074A0848FFF7DCF9DF
S3150200348040F28261074B044A0448FFF7D5F900BFB0
S3150200349000ED00E09C520002185B00025C51000243
S315020034A0F05200027053000270B518B3F1B1002455
S315020034B0144D0A222B46A44605E0013A0CF1010CF2
S315020034C003F108030FD05E68864210D0002CF4D1B7
S315020034D055F83C600CF1010C002E08BF1C46013A5F
S315020034E003F10803EFD10CB1C4E9001070BD05EB7E
S315020034F0CC04F9E740F6C931034B044A0448FFF706
S315020035009BF900BF5025002254510002045B0002C1
S315020035105C51000270B504460E461546FDF720FBC7
S3150200352094F84430FF2B04BF002384F8443094F807
S315020035304530FF2B04BF002384F84530FDF738FBE6
S31502003540A36B23B12046BDE87040FFF7E3BB04F14D
S3150200355024002A46314600F0B3FC2046BDE87040FE
S31502003560FFF7D8BB2DE9F8430446264B2648274ADF
S31502003570274DD0F800901768D3F8008028680E46C9
S315020035800430FFF777FB631C17D02B6819EB040492
S315020035905C600BD2296838460431FFF753FB1D4B9A
S315020035A01A68A24200D91C60BDE8F8832968404621
S315020035B0BDE8F8430431FFF745BB76B92B6809F13C
S315020035C0FF325A60B9F1000FF0D12968384604314A
S315020035D0FFF738FB0F4B1B68E6E70F4B2A68596863
S315020035E02C6891602A6888680432E0604260286824
S315020035F01A682C680430013288601A606361BDE87B
S31502003600F88300BF0C260022C425002210260022C1
S31502003610A0260022A8250022CC25002280B54FF044
S315020036208059124C124E134D134FDFF850800EE0A4
S31502003630FDF796FAF368D8680430FFF71BFB2B6890
S31502003640013B2B602368013B2360FDF7B1FA236837
S31502003650002BEDD13B68012B05D9C8F80490BFF3C6
S315020036604F8FBFF36F8FFDF7C1FAF0E7E025002217
S31502003670E4250022C82500223C26002200ED00E0B7
S315020036802DE9F84F594B1C6801341C60002C00F0E0
S315020036908280DFF87C81D8F800309C4273D3544D87
S315020036A02B681868002800F08D800020DFF864B1CE
S315020036B00646504ADFF860C15CE0D9689F68D3F8D5
S315020036C01490B9609F6803F1040E4F60D9F8041094
S315020036D0714504BFD968C9F804105E61D9F80010B3
S315020036E00139C9F80010D3F82890B9F1000F13D0A8
S315020036F0D3E90771B960DF6903F1180A4F60D9F897
S315020037000410514504BF196AC9F804109E62D9F81B
S3150200371000100139C9F80010D96ADBF80090494552
S3150200372088BFCBF8001001EB810102EB81014968E9
S315020037309960D1F80890C3F80C90C9F804E0C1F872
S3150200374008E0D96ADCF8009001EB810E02EB8E01EB
S31502003750596152F82E10D5F800A0013142F82E1008
S31502003760D3F82CE0D9F82C10DAF800308E4588BF51
S3150200377001203BB32B68DB68DB6859688C429CD21C
S31502003780C8F8001000E000201B4B1B68002B18BF76
S315020037900120BDE8F88F164B1A681268FAB9174A63
S315020037A01868156816491D6010600A6801320A60B9
S315020037B01A6812685AB94FF0FF33DFF85480C8F816
S315020037C0003068E74FF0FF33C8F80030DCE71B68CB
S315020037D0DFF83C80DB681B68C8F800305BE741F223
S315020037E05F21084B084A0948FFF726F8C42500223C
S315020037F0102600223C260022B42500220C26002296
S31502003800B02500220C540002605C0002E053000264
S31502003810A8250022C0250022A02600222DE9F04775
S3150200382082B00C9CDDE90A6ABAF1000F00F0D5807D
S31502003830002C00F0CB809846682301931546019A26
S315020038409A4240F0BC80894605F18045013D074613
S31502003850002120460AEB8505019B25F0070500F0AD
S3150200386065FFC4F830A0B9F1000F10D04FF0100C6C
S3150200387009F1FF3E04F133031EF9011F03F8011F8C
S3150200388011B1BCF1010CF7D1002384F84330042EA8
S3150200389000F28E8004F104094846E6626664FFF788
S315020038A0CDF9C6F1050604F11800FFF7C7F943463C
S315020038B03A462846216B2461A6616462FDF73AF90D
S315020038C02060FDF74DF9484A484D136801331360ED
S315020038D02B68002B40D0464FE36A3A68002A34D060
S315020038E0444E454945480A6801320A6002689A42CE
S315020038F038BF036003EB830306EB83035B68A360B5
S315020039009A68E260C2F80490C3F80890E36A03EB8F
S3150200391083039A0006EB83036361B3580133B35002
S31502003920FDF746F93B6863B12A68E36AD26A9A42AE
S3150200393007D24FF08052324B5A60BFF34F8FBFF31C
S315020039406F8F204602B0BDE8F0872A68294ED26AF8
S31502003950934228BF2C60C4E72C601368012B03D066
S31502003960E36A244E224FBCE7224E374606F164082C
S3150200397038461437FFF756F9B845F9D1DFF8B8805B
S31502003980204F4046FFF74EF93846FFF74BF91E48DF
S31502003990FFF748F91D48FFF745F91D48FFF742F9B9
S315020039A01C4BC3F800801C4B1F60E36A104F98E75C
S315020039B040F26471194B1A4A1A48FEF73DFF40F26B
S315020039C0FA41194B194A1748FEF736FF40F2F241FF
S315020039D0174B164A1348FEF72FFF40F2F141154BDB
S315020039E0124A1048FEF728FFC8250022A026002208
S315020039F0BC2500223C260022AC250022C02500223E
S31502003A0000ED00E014260022F8250022E42500221B
S31502003A10CC250022102600220C260022DC540002AD
S31502003A20B45C0002E0530002C0540002CC5C000207
S31502003A30A4540002845400022826002230B5002431
S31502003A408DB01B4B07AA06A905A80893CDE9054424
S31502003A508DF82440FCF7AEFF0699059D2346CDE975
S31502003A6001151448079A009408A9FFF7D7FE124BCE
S31502003A70186018B9114B1B680DB030BD00F0ECFD93
S31502003A80012808D00130F5D140F6A9610C4B0D4A48
S31502003A900D48FEF7D1FE80F310884FF0FF350B4933
S31502003AA00B4A0C4B0D6010601C60FDF7DFF8E1E776
S31502003AB049444C451D360002A4250022E05C000262
S31502003AC0F0540002845C0002E0530002A8250022A2
S31502003AD0BC250022C4250022024A13680133136062
S31502003AE0704700BFA02500222DE9F047604CFDF784
S31502003AF037F82368002B00F0B3802368013B23606C
S31502003B002068002840F09E805A4B1B68002B00F06C
S31502003B109980594D2B68002B00F09F804FF0010CC5
S31502003B20564E574ADFF86CA1DFF87881EB68DB68FE
S31502003B30196ADF69D3F828E0B960DF6903F1180969
S31502003B404F60DEF80410494504BF196ACEF8041026
S31502003B509862DEF800100139CEF80010D9689F6825
S31502003B60D3F814E0B9609F6803F104094F60DEF8E8
S31502003B700410494504BFD968CEF804105861DEF82E
S31502003B8000100139CEF80010D96AD6F800E0714566
S31502003B9088BF316001EB810102EB810149689960BE
S31502003BA0D1F808E0C3F80CE0CEF80490C1F808900A
S31502003BB0D96A01EB810E02EB8E01596152F82E1081
S31502003BC0013142F82E10DAF800E0D96ADEF82C301C
S31502003BD099422B6888BFC8F800C0002BA6D1294B92
S31502003BE01A681268002A33D01A68274BD2681268FC
S31502003BF01A60264E356895B1012706E0FFF740FDAB
S31502003C0008B1C8F80070013D08D02368002BF5D032
S31502003C103368013D03F101033360F6D13560D8F80C
S31502003C2000307BB14FF08052194B1A4909685A602D
S31502003C30BFF34F8FBFF36F8F0124FCF7B9FF204606
S31502003C40BDE8F0870024FCF7B3FF2046BDE8F08705
S31502003C504FF0FF320C4B1A60CBE7DFF84880C8E71B
S31502003C6040F68B710C4B0D4A0D48FEF7E5FD00BF81
S31502003C70A0250022C8250022F8250022C025002200
S31502003C803C26002210260022A8250022B825002262
S31502003C9000ED00E0A026002204550002745C00023A
S31502003CA0E0530002B425002210B500283AD00029BC
S31502003CB031D0204B1A6801321A601F4A14681B68F9
S31502003CC0012B21D1026853182CBF01210021A242E7
S31502003CD015D809B99C4214D203600021181BFFF7BC
S31502003CE041FC0124FFF700FF38B94FF08052134B15
S31502003CF05A60BFF34F8FBFF36F8F204610BD002966
S31502003D00E8D100240360EDE740F638110C4B0D4A6A
S31502003D100D48FEF791FD4FF413610C4B094A0A4810
S31502003D20FEF78AFD40F62F11094B064A0648FEF7B2
S31502003D3083FD00BFA0250022C425002200ED00E07D
S31502003D404C550002A45C0002E05300023455000206
S31502003D502055000208B560B10E4B1A6801321A608E
S31502003D601B68012B0ED10021FFF7FCFBFFF7BCFEFF
S31502003D7038B94FF08052084B5A60BFF34F8FBFF3EA
S31502003D806F8F08BD40F68E11044B054A0548FEF7B3
S31502003D9053FD00BFA025002200ED00E04C550002B5
S31502003DA0985C0002E0530002014B1868704700BF9E
S31502003DB0C4250022054B1B680BB9FFF761BC044AF8
S31502003DC00020136801331360704700BFA02500224C
S31502003DD0B8250022234B1B681BB10122224B1A6015
S31502003DE0704770B5204A214D13602A682B68126805
S31502003DF01B6B9A4228D91E4E1E4C316801EB810379
S31502003E0054F823008A0004EB830360B90A4621B9F9
S31502003E1020E0013AA3F114031CD053F8140C013923
S31502003E200028F6D08A00531804EB8302144653681E
S31502003E3008345B68A342536004BFD3685360DB68EF
S31502003E402B6031602B6870BD296828683431FCF715
S31502003E50C5FBD0E741F2FA31074B084A0848FEF79C
S31502003E60EBFC00BFA0250022B4250022A0260022DA
S31502003E70C02500223C260022685500024C5C000246
S31502003E80E053000210B558B10C46094B19681831B7
S31502003E90FEF7D8FE2046BDE810400121FFF762BBBF
S31502003EA04FF4A451034B044A0448FEF7C5FC00BF75
S31502003EB0A026002278550002345C0002E05300027C
S31502003EC0F8B50346F8B108461146124C5A682568F9
S31502003ED0D4F800C0EA6126682568276805F1180447
S31502003EE095681836CCF820506E609460BB621A68EA
S31502003EF0002902F101021A6018BF4FF0FF30BDE837
S31502003F00F840FFF72FBB41F2BE41034B034A044878
S31502003F10FEF792FCA026002278550002145C0002ED
S31502003F20E053000238B5C368DB68002B5BD0D3E9E7
S31502003F3007019A6A8160DC6903F118004C605168D6
S31502003F402C4C814208BF196A246808BF51600021BF
S31502003F509962116801391160ACB1274AD2E9004170
S31502003F60D9618D6801341D621460686088609A6246
S31502003F702249DA6A0B68DB6A9A4232D90123204A5D
S31502003F801846136038BD5A69D3E9020181609C68FC
S31502003F90181D4C6051681B4C814208BFD9682568C0
S31502003FA008BF516000215961116801391160DA6A4E
S31502003FB01549AA4288BF226002EB820201EB820205
S31502003FC052689A609468DC6060609060DA6A02EB1C
S31502003FD0820201EB820058619200885801308850B3
S31502003FE0C6E7002038BD41F2F541084B084A0948A8
S31502003FF0FEF722FCA0250022F8250022A026002298
S31502004000B4250022C02500223C2600228455000247
S31502004010F85B0002E0530002034A044B12681B6875
S31502004020C0E90023704700BFB0250022C425002244
S31502004030F8B550B30D4679B30446FCF791FD2B68EB
S31502004040194A581C11681BD0DFF870C02668DCF8C4
S3150200405000706068BE4208D0884206D80023012458
S315020040602B60FCF7A5FD2046F8BD0F1ABB42F5D919
S315020040705B1ADCF80010126803442B60C4E90012D4
S315020040800024FCF795FD2046F8BD41F2A551074BE9
S31502004090074A0848FEF7D0FB41F2A651064B044AEE
S315020040A00448FEF7C9FB00BFC4250022945500024E
S315020040B0E05B0002E0530002A0550002B025002298
S315020040C00122014B1A607047B4250022054B1B687A
S315020040D033B1054B1868B0FA80F0400940007047CA
S315020040E001207047BC250022A0250022F8B504460F
S315020040F0C8B1224DC36A2A68D26A934214D282692F
S31502004100002A04DB2A68D26AC2F1050282611C4EC9
S31502004110626903EB830306EB83039A420CD02B6896
S31502004120DB6AE3620120F8BD2B68406CDB6A9842C9
S315020041302CBF00200120F8BD271D3846FEF79AFD48
S31502004140104A2B681168DB6A8B42E36288BF1360F0
S3150200415003EB830306EB83035B68A3609A68E26062
S3150200416057609F60E36A03EB830306EB8302626197
S315020041709B00F2580132F250D4E700BFA02600227B
S315020041803C260022C025002288B138B5224B0446BF
S315020041901B68834232D19B6C002B36D0C16A426CBB
S315020041A0013B9142836400D01BB1002038BD002040
S315020041B07047051D2846FEF75DFD636C174AC3F17D
S315020041C00500A06101201168E3628B4288BF13607B
S315020041D0134A03EB830302EB83035B68A3609968CC
S315020041E0E1604D609D60E36A03EB830302EB8301AA
S315020041F061619B00D1580144D15038BD41F6282156
S31502004200084B094A0948FEF717FB41F62921084BD4
S31502004210054A0648FEF710FBA0260022C02500220A
S315020042203C260022B0550002C85B0002E0530002A1
S31502004230C855000270B170B5826C0446002A3CD0A3
S31502004240406CE36A814238BF01468B4201D0012AA3
S3150200425001D070BD7047204A1268A24234D0A269CA
S315020042601E4D002A03EB83036269E16205EB8303B9
S31502004270A4BFC1F10501A1619A42EAD1261D3046C9
S31502004280FEF7F8FC164AE36A11688B4288BF136090
S3150200429003EB830305EB83035B68A3609A68E26022
S315020042A056609E60E36A03EB830305EB8302626159
S315020042B09B00EA580132EA5070BD41F68621094B4D
S315020042C0094A0A48FEF7B8FA41F6A121084B064AFE
S315020042D00648FEF7B1FA00BFA02600223C260022BD
S315020042E0C0250022C8550002A45B0002E05300026A
S315020042F0E0550002034B186810B1836C01338364E6
S31502004300704700BFA0260022F0B5144C83B0FCF71C
S3150200431027FC256825B103B0BDE8F040FCF748BC90
S315020043200F4F104E3846FEF77DFC3046FEF77AFCFC
S31502004330DFF840E0DFF840C000950C210A200A4B66
S315020043400A4ACEF80070CCF80060FEF787FD2060BE
S315020043500028E0D00649FFF7A7F8DCE7702700221D
S31502004360902700227C270022A4260022F026002283
S31502004370F855000278270022742700222DE9F0471B
S31502004380DFF884900546D9F800300F46DB68DC6812
S3150200439004F104084046FEF76DFC94F824305A07EF
S315020043A00ED423F0010384F824302046236ABDE8A4
S315020043B0F047184793421BD82046236A984735464A
S315020043C0A3697A1BEE182CBF01210021B742666051
S315020043D02461EFD2AF4201D20029EDD0D9F8000014
S315020043E04146FEF72FFC2046236ABDE8F0471847F0
S315020043F0044B41461868FEF725FC2046236ABDE8B1
S31502004400F047184774270022782700222DE9F04F3B
S315020044100027894D894E8A4CDFF8388285B02B6891
S31502004420D3F800B0BBF1000F00F0B180DB68D3F81F
S3150200443000B0FFF751FBFFF7B7FC336882468342B1
S3150200444043D88345306040F2BE8000222068ABEB41
S315020044500A01FFF75FF8FFF747FB38B94FF08053C1
S31502004460784A5360BFF34F8FBFF36F8FCDE9017761
S3150200447003970022206801A9FEF786FE0028CED007
S31502004480019B002BF5DBDDF80CA0DAF814301BB12A
S315020044900AF10400FEF7EEFBFFF786FC336883465B
S315020044A0984226D3019BC6F800B0013B082BE0D800
S315020044B0DFE803F029294D544D29294D5400DB68C4
S315020044C04FF0FF311868FFF759FF2B681A68002A68
S315020044D0F5D1D8F80020C6F800A02A60C8F8003046
S315020044E0FFF702FBC2E7DB684FF0FF311868FFF700
S315020044F045FF2B681A68002AF5D1D8F80020C8F8BB
S3150200450000302A60CEE79AF82410029ADAF81830B8
S3150200451041F0010CD0188AF824C02CBF4FF0010CD0
S315020045204FF0000C5845CAF80400CAF810A03FD84C
S31502004530ABEB0202934223D84A074BD421F0010186
S315020045408AF824105046DAF82030984791E79AF80C
S31502004550243023F001038AF824308AE79AF82420CB
S31502004560029B42F001028AF82420CAF81830002B76
S315020045705AD05B445B45CAF80430CAF810A01CD86E
S31502004580D8F800000AF10401FEF75CFB71E7FFF7B9
S31502004590A3FAFFF709FC33688246984295D3D8F806
S315020045A00030C6F800A01A68B2FA82F252094DE744
S315020045B05A4502D9BCF1000FBED028680AF104019F
S315020045C0FEF740FB55E7FFF78FFA51465846FFF7CD
S315020045D0D5FE4BE7029A1A440AE0ABEB020293427B
S315020045E01BD8DAF82030504698474A46DAF818308F
S315020045F013EB02092CBF01200020CB45CAF8049018
S31502004600CAF810A0E9D2934501D20028E9D0286859
S315020046100AF10401FEF716FB94E7D8F800000AF146
S315020046200401FEF70FFB8DE74FF48261064B074A42
S315020046300748FEF701F900BF782700226827002203
S315020046407027002200ED00E034560002E45C00020E
S31502004650085600027427002230B589B0FFF754FECF
S31502004660114B1B68CBB10024032507AA06A905A88E
S31502004670CDE90544FCF7ACF92346069A059C0B499D
S31502004680CDE901240A48079A0095FFF7C7F8094BB6
S31502004690186010B1012009B030BD4FF4A371064B6A
S315020046A0064A0748FEF7C8F8702700225C56000241
S315020046B00D4400026C27002264560002005D0002CF
S315020046C0085600020CB4184B30B50C1E9DB01D687E
S315020046D008DA8B234FF0FF302B601DB0BDE8304067
S315020046E002B070474FF402730290069002A9ADF829
S315020046F0143014BF04F1FF332346209A284604934C
S3150200470007934FF6FF73ADF8163021AB019300F015
S3150200471087F9431CBCBF8B232B60002CDDD0029B88
S3150200472000221A70D9E700BF88000022024403461D
S31502004730934200D1704703F8011BF9E7014B186851
S31502004740704700BF88000022704770470A44431E24
S31502004750914200D1704710B511F8014B914203F80E
S31502004760014FF9D110BD034613F8012B002AFBD1E4
S31502004770181A01387047000038B50546002941D09D
S3150200478051F8043C0C1F002BB8BFE41800F0E0F807
S315020047901D4A136833B9636014602846BDE8384081
S315020047A000F0DCB8A34208D9206821188B4201BF69
S315020047B019685B6809182160EDE71A465B680BB158
S315020047C0A342FAD911685018A0420BD120680144BD
S315020047D0501811608342E0D118685B680844536040
S315020047E01060DAE702D90C232B60D6E7206821187D
S315020047F08B4202BF19685B680918636008BF2160B3
S315020048005460CAE738BD00BFE828002270B50F4ED3
S315020048100C460546316811B900F0A8FB3060214606
S31502004820284600F0A3FB431C03D14FF0FF34204679
S3150200483070BDC41C24F00304A042F8D0211A2846F5
S3150200484000F094FB0130F2D1EFE700BFE42800222A
S315020048502DE9F843CD1C064625F0030508350C2D37
S3150200486038BF0C25002D01DBA94204D90C23336085
S315020048700020BDE8F883DFF8D48000F069F8D8F8A4
S3150200488000301C4644BB29463046FFF7BFFF431C97
S31502004890044658D1D8F800402746002F43D1002CB1
S315020048A04BD023683946304604EB030900F05EFB21
S315020048B0814542D1216830466D1A2946FFF7A6FF87
S315020048C001303AD023682B442360D8F800305A6866
S315020048D062BBC8F800700FE02268521B20D40B2A74
S315020048E017D96119A342256018BF5960636808BFCA
S315020048F0C8F8001062514B60304600F02FF804F100
S315020049000B00231D20F00700C21A1CBF1B1AA3505E
S31502004910AFE76268A3420CBFC8F800205A60EBE713
S3150200492023466468AEE73C467F68B6E71A465B688C
S31502004930A342FBD100235360DEE70C2330463360EB
S3150200494000F00CF894E70560D6E700BFE8280022DD
S315020049500148FFF7F9BE00BFE02800220148FFF731
S31502004960F4BE00BFE02800222DE9F0471F468E68FC
S3150200497082460C46BE4290460B682DD8B1F90C20F1
S3150200498012F4906F26D06569096905EB4505A3EB1C
S3150200499001097B1C05EBD5754B446D109D4238BF52
S315020049A01D46530527D52946FFF752FF064660B333
S315020049B04A462169FFF7CAFEA38923F4906343F0AE
S315020049C08003A38126614E446561A5EB0905266035
S315020049D03E46A560BE4200D93E4632464146206862
S315020049E000F0AAFAA36800209B1BA3602368334445
S315020049F02360BDE8F0872A4600F0D6FA064600286C
S31502004A00E0D121695046FFF7B7FE0C234FF0FF3085
S31502004A10CAF80030A38943F04003A381E9E7000006
S31502004A202DE9F04F98468B899DB007461B060D4629
S31502004A30144610D50B6973B94021FFF709FF2860A8
S31502004A40286130B90C233B604FF0FF301DB0BDE842
S31502004A50F08F40236B610023CDF80C804FF00109E3
S31502004A60DFF8A081099320238DF8293030238DF8B1
S31502004A702A3023469A4613F8012B0AB1252AF9D180
S31502004A80BAEB040B0BD05B46224629463846FFF7A3
S31502004A906BFF013000F0A780099A5A4409929AF8EE
S31502004AA00030002B00F09F8000234FF0FF320AF106
S31502004AB0010A049307938DF853301A93CDE905231F
S31502004AC0544605224F4814F8011B00F05FFA049A77
S31502004AD0D8B9D00644BF20238DF85330110744BFFE
S31502004AE02B238DF853309AF800302A2B15D0079ACB
S31502004AF0544600204FF00A0C214611F8013B303B88
S31502004B00092B4BD9B0B1079214E0A0EB0803A246D9
S31502004B1009FA03F313430493D2E7039B191D1B6897
S31502004B20002B0391BBBF5B4242F00202079307933D
S31502004B30B8BF049223782E2B0AD163782A2B32D15E
S31502004B40039B02341A1D1B6843EAE373039205931F
S31502004B50DFF8C0A003222178504600F017FA38B1D8
S31502004B60A0EB0A004022049B0134824013430493C3
S31502004B7014F8011B062224488DF8281000F006FAC4
S31502004B80002836D0214B1BBB039B073323F00703B8
S31502004B9008330393099B334409936AE70CFB0232F9
S31502004BA00C460120A8E7002301344FF00A0C1946EF
S31502004BB00593204610F8012B303A092A03D9002B17
S31502004BC0C6D00591C4E70CFB012104460123F0E798
S31502004BD003AB2A4604A9384600930D4BAFF3008077
S31502004BE0421C0646D6D1AB895B063FF52DAF099826
S31502004BF02CE703AB2A4604A938460093044B00F07F
S31502004C007DF8EDE7165D0002205D0002000000005F
S31502004C10694900021C5D00022DE9F04716469846D6
S31502004C208A6807460B690C46DDF820909342B8BFA6
S31502004C301346336091F843200AB101333360236887
S31502004C40990642BF336802333360256815F00605BC
S31502004C5006D104F1190AE36832689B1AAB422BDCCF
S31502004C6094F843302268003B18BF0123920630D4E1
S31502004C7004F1430241463846C847013023D023682F
S31502004C801A3454F80A2C03F00603042B0ABF54F80C
S31502004C900E5C002533684FF0000608BFED1A54F883
S31502004CA0123C08BF25EAE5759342C4BF9B1AED186C
S31502004CB0B5421AD1002008E0012352464146384641
S31502004CC0C847013003D14FF0FF30BDE8F087013508
S31502004CD0C1E7E1185A1C30200233224481F843000E
S31502004CE094F8451082F84310C2E701232246414652
S31502004CF03846C8470130E6D00136D9E72DE9FF47E5
S31502004D000F7E914680460C46782F9A460C9E01F1FC
S31502004D10430207D8622F0AD8002F00F0D180582FFD
S31502004D2000F0B88004F1420684F842703AE0A7F136
S31502004D306303152BF6D801A151F823F0954D000215
S31502004D40A94D0002254D0002254D0002254D000207
S31502004D50254D0002A94D0002254D0002254D0002F7
S31502004D60254D0002254D0002A74E0002D34D00023A
S31502004D70614E0002254D0002254D0002C94E000279
S31502004D80254D0002D34D0002254D0002254D00029D
S31502004D90694E000233681A1D1B68326004F142062E
S31502004DA084F8423001239CE033682068191D316083
S31502004DB0060601D51D6803E04506FBD5B3F900508A
S31502004DC0002D03DA2D236D4284F8433058480A2316
S31502004DD011E021683368080653F8045B02D44906D9
S31502004DE048BFADB26F2F3360514814BF0A23082360
S31502004DF0002184F843106668002EA66005DB216850
S31502004E002E4321F0040121604BD01646B5FBF3F187
S31502004E1003FB1157C75D06F8017D2F460D46BB42BF
S31502004E20F4D9082B0BD12368DF0708D523696168FB
S31502004E309942DEBF302306F8013C06F1FF36921B8B
S31502004E4022614B4603AA21464046CDF800A0FFF751
S31502004E50E3FE01304AD14FF0FF3004B0BDE8F087DF
S31502004E60236843F02003236078273248236884F8B6
S31502004E7045701F06316851F8045B02D45F0648BFCD
S31502004E80ADB23160D90744BF43F0200323601DB1A0
S31502004E901023ADE72648E9E7236823F020032360C1
S31502004EA0F6E71646BDE733682568181D6169306066
S31502004EB02E061B6801D5196002E06806FBD519802B
S31502004EC0002316462361BCE7336800211A1D3260AF
S31502004ED01E686268304600F059F808B1801B6060AF
S31502004EE063682361002384F84330AAE723693246C4
S31502004EF049464046D0470130ADD023689B0713D4BC
S31502004F00E068039B9842B8BF1846A6E701233246DB
S31502004F1049464046D04701309DD00135E3680399A2
S31502004F205B1AAB42F2DCEBE7002504F11906F5E762
S31502004F30275D0002385D0002884210B501EB0204CB
S31502004F4002D98442234607D8431EA14208D011F84B
S31502004F50012B03F8012FF8E7024401468A4200D1E9
S31502004F6010BD13F8014D02F8014DF7E738B50023DD
S31502004F70054D044608462B60FDF73EFD431C02D153
S31502004F802B6803B1236038BDDC280022C9B2034670
S31502004F90024410B59342184601D1002003E004787A
S31502004FA001338C42F6D110BD2DE9F0410746144675
S31502004FB00D4621B91146BDE8F041FFF749BC2AB9B1
S31502004FC02546FFF7D9FB2846BDE8F08100F01AF81E
S31502004FD08442064602D8B4EB500FF4D8214638462E
S31502004FE0FFF736FC804608B94546ECE7B44222464E
S31502004FF0294628BF3246FFF7A9FB29463846FFF75E
S31502005000BBFBF1E751F8043C181F002BBCBF0B5841
S31502005010C0187047000000000000008000800000F9
S3150200502000000000626D735F6D7574657820213D26
S31502005030202828766F6964202A293029000000007A
S315020050402E2E2F7372632F6E65775F746872656199
S3150200505064305F656E7472792E63000053656E73F9
S315020050606F72000043414E00554152540000000049
S31502005070424D53207374617274696E672E2E2E0D23
S315020050800A000000252E33662C252E34662C252E8A
S3150200509033662C252E31662C252E31662C252E3193
S315020050A0662C25752C25752C25750D0A0000000029
S315020050B04E657720546872656164000075635356C5
S315020050C0434E756D626572203C3D20330000000040
S315020050D02E2E2F72612F6673702F7372632F726D6D
S315020050E05F6672656572746F735F706F72742F702C
S315020050F06F72742E630000002828285343425F54BF
S31502005100797065202A2920282830784530303045A4
S31502005110303030554C29202B2030783044303055F1
S315020051204C2920292D3E49435352202620283078E7
S31502005130314646554C202929203D3D2030000000AD
S315020051407578437269746963616C4E657374696ECE
S315020051506700000078517565756500002E2E2F7266
S31502005160612F6177732F4672656552544F532F46EE
S3150200517072656552544F532F536F757263652F7163
S31502005180756575652E6300007078517565756500E5
S315020051907852657475726E20213D202820282028B9
S315020051A02042617365547970655F7420292030202E
S315020051B02920290070785374617469635175657585
S315020051C0650000007853697A65203D3D2073697A4F
S315020051D0656F66282051756575655F742029000024
S315020051E070784E6577517565756500007848616E11
S315020051F0646C6500212820282070764974656D54F8
S315020052006F5175657565203D3D202828766F696466
S31502005210202A293029202920262620282070785164
S31502005220756575652D3E75784974656D53697A6540
S3150200523020213D2028205542617365547970655FAF
S3150200524074202920305520292029000021282028D1
S315020052502078436F7079506F736974696F6E203D61
S315020052603D202820282042617365547970655F7459
S31502005270202920322029202920262620282070783D
S3150200528051756575652D3E75784C656E6774682037
S31502005290213D203120292029000000002128202834
S315020052A020785461736B4765745363686564756CE3
S315020052B0657253746174652829203D3D2028202893
S315020052C02042617365547970655F7420292030200D
S315020052D0292029202626202820785469636B7354B6
S315020052E06F5761697420213D203020292029000052
S315020052F0707851756575652D3E75784974656D537F
S31502005300697A65203D3D20300000000021282028D2
S3150200531020707851756575652D3E706348656164C8
S31502005320203D3D202828766F6964202A29302920CD
S3150200533029202626202820707851756575652D3E10
S31502005340752E7853656D6170686F72652E784D752E
S31502005350746578486F6C64657220213D2028287632
S315020053606F6964202A29302920292029000000009B
S315020053702820707851756575652029002128202816
S3150200538020282070764275666665722029203D3D8A
S31502005390202828766F6964202A2930292029202688
S315020053A02620282028207078517565756520292DBC
S315020053B03E75784974656D53697A6520213D2028CA
S315020053C0205542617365547970655F7420292030D7
S315020053D05520292029000000785461736B000000D3
S315020053E02E2E2F72612F6177732F46726565525486
S315020053F04F532F4672656552544F532F536F757232
S3150200540063652F7461736B732E6300002820282056
S3150200541028202820707844656C617965645461732C
S315020054206B4C69737420292D3E75784E756D6265D5
S31502005430724F664974656D73203D3D2028205542A2
S31502005440617365547970655F7420292030202920A4
S315020054503F202820282042617365547970655F7465
S31502005460202920312029203A202820282042617331
S3150200547065547970655F74202920302029202920FF
S3150200548029000000707578537461636B4275666615
S31502005490657220213D202828766F6964202A2930EA
S315020054A02900000070785461736B427566666572F6
S315020054B020213D202828766F6964202A2930290078
S315020054C07853697A65203D3D2073697A656F66284F
S315020054D0205443425F742029000000007578507200
S315020054E0696F72697479203C202835290000000012
S315020054F07852657475726E20213D2028202D312048
